:020000040000fa
:080000000002040000000000f2
:020000040000fa
:04000800da03000017
:020000040000fa
:04000c00da03000013
:020000040000fa
:04001000da0300000f
:020000040000fa
:04001400da0300000b
:020000040000fa
:04001800da03000007
:020000040000fa
:04001c00da03000003
:020000040000fa
:04002000da030000ff
:020000040000fa
:04002400da030000fb
:020000040000fa
:04002800da030000f7
:020000040000fa
:04002c0018030000b5
:020000040000fa
:04003000da030000ef
:020000040000fa
:04003400bc03000009
:020000040000fa
:04003800da030000e7
:020000040000fa
:04003c00da030000e3
:020000040000fa
:04004000da030000df
:020000040000fa
:04004400da030000db
:020000040000fa
:04004800a20300000f
:020000040000fa
:04004c00da030000d3
:020000040000fa
:04005000da030000cf
:020000040000fa
:04005400cc020000da
:020000040000fa
:04005800da030000c7
:020000040000fa
:04005c00da030000c3
:020000040000fa
:04006000da030000bf
:020000040000fa
:04006400da030000bb
:020000040000fa
:04006800da030000b7
:020000040000fa
:04006c00da030000b3
:020000040000fa
:04007000da030000af
:020000040000fa
:04007400da030000ab
:020000040000fa
:04007800da030000a7
:020000040000fa
:04007c00da030000a3
:020000040000fa
:04008000da0300009f
:020000040000fa
:04008400da0300009b
:020000040000fa
:04008800da03000097
:020000040000fa
:04008c00da03000093
:020000040000fa
:04009000da0300008f
:020000040000fa
:04009400da0300008b
:020000040000fa
:04009800da03000087
:020000040000fa
:04009c00da03000083
:020000040000fa
:0400a000da0300007f
:020000040000fa
:0400a400da0300007b
:020000040000fa
:0400a800da03000077
:020000040000fa
:0400ac00da03000073
:020000040000fa
:0400b000da0300006f
:020000040000fa
:0400b400da0300006b
:020000040000fa
:0400b800da03000067
:020000040000fa
:0400bc00da03000063
:020000040000fa
:0400c000da0300005f
:020000040000fa
:0400c400da0300005b
:020000040000fa
:0400c800da03000057
:020000040000fa
:0400cc00da03000053
:020000040000fa
:0400d000da0300004f
:020000040000fa
:0400d400da0300004b
:020000040000fa
:0400d800da03000047
:020000040000fa
:0400dc00da03000043
:020000040000fa
:0400e000da0300003f
:020000040000fa
:0400e400da0300003b
:020000040000fa
:0400e800da03000037
:020000040000fa
:0400ec00da03000033
:020000040000fa
:0400f000da0300002f
:020000040000fa
:0400f400da0300002b
:020000040000fa
:0400f800da03000027
:020000040000fa
:0400fc00da03000023
:020000040000fa
:04010000da0300001e
:020000040000fa
:04010400da0300001a
:020000040000fa
:04010800da03000016
:020000040000fa
:04010c00da03000012
:020000040000fa
:04011000da0300000e
:020000040000fa
:04011400da0300000a
:020000040000fa
:04011800da03000006
:020000040000fa
:04011c00da03000002
:020000040000fa
:04012000da030000fe
:020000040000fa
:04012400da030000fa
:020000040000fa
:04012800da030000f6
:020000040000fa
:04012c00da030000f2
:020000040000fa
:04013000da030000ee
:020000040000fa
:04013400da030000ea
:020000040000fa
:04013800da030000e6
:020000040000fa
:04013c00da030000e2
:020000040000fa
:04014000da030000de
:020000040000fa
:04014400da030000da
:020000040000fa
:04014800da030000d6
:020000040000fa
:04020800da03000015
:020000040000fa
:04020c00da03000011
:020000040000fa
:04021000da0300000d
:020000040000fa
:04021400da03000009
:020000040000fa
:04021800da03000005
:020000040000fa
:04021c00da03000001
:020000040000fa
:04022000da030000fd
:020000040000fa
:04022400da030000f9
:020000040000fa
:04022800da030000f5
:020000040000fa
:04022c0018030000b3
:020000040000fa
:04023000da030000ed
:020000040000fa
:04023400bc03000007
:020000040000fa
:04023800da030000e5
:020000040000fa
:04023c00da030000e1
:020000040000fa
:04024000da030000dd
:020000040000fa
:04024400da030000d9
:020000040000fa
:04024800a20300000d
:020000040000fa
:04024c00da030000d1
:020000040000fa
:04025000da030000cd
:020000040000fa
:04025400cc020000d8
:020000040000fa
:04025800da030000c5
:020000040000fa
:04025c00da030000c1
:020000040000fa
:04026000da030000bd
:020000040000fa
:04026400da030000b9
:020000040000fa
:04026800da030000b5
:020000040000fa
:04026c00da030000b1
:020000040000fa
:04027000da030000ad
:020000040000fa
:04027400da030000a9
:020000040000fa
:04027800da030000a5
:020000040000fa
:04027c00da030000a1
:020000040000fa
:04028000da0300009d
:020000040000fa
:04028400da03000099
:020000040000fa
:04028800da03000095
:020000040000fa
:04028c00da03000091
:020000040000fa
:04029000da0300008d
:020000040000fa
:04029400da03000089
:020000040000fa
:04029800da03000085
:020000040000fa
:04029c00da03000081
:020000040000fa
:0402a000da0300007d
:020000040000fa
:0402a400da03000079
:020000040000fa
:0402a800da03000075
:020000040000fa
:0402ac00da03000071
:020000040000fa
:0402b000da0300006d
:020000040000fa
:0402b400da03000069
:020000040000fa
:0402b800da03000065
:020000040000fa
:0402bc00da03000061
:020000040000fa
:0402c000da0300005d
:020000040000fa
:0402c400da03000059
:020000040000fa
:0402c800da03000055
:020000040000fa
:0402cc00da03000051
:020000040000fa
:0402d000da0300004d
:020000040000fa
:0402d400da03000049
:020000040000fa
:0402d800da03000045
:020000040000fa
:0402dc00da03000041
:020000040000fa
:0402e000da0300003d
:020000040000fa
:0402e400da03000039
:020000040000fa
:0402e800da03000035
:020000040000fa
:0402ec00da03000031
:020000040000fa
:0402f000da0300002d
:020000040000fa
:0402f400da03000029
:020000040000fa
:0402f800da03000025
:020000040000fa
:0402fc00da03000021
:020000040000fa
:04030000da0300001c
:020000040000fa
:04030400da03000018
:020000040000fa
:04030800da03000014
:020000040000fa
:04030c00da03000010
:020000040000fa
:04031000da0300000c
:020000040000fa
:04031400da03000008
:020000040000fa
:04031800da03000004
:020000040000fa
:04031c00da03000000
:020000040000fa
:04032000da030000fc
:020000040000fa
:04032400da030000f8
:020000040000fa
:04032800da030000f4
:020000040000fa
:04032c00da030000f0
:020000040000fa
:04033000da030000ec
:020000040000fa
:04033400da030000e8
:020000040000fa
:04033800da030000e4
:020000040000fa
:04033c00da030000e0
:020000040000fa
:04034000da030000dc
:020000040000fa
:04034400da030000d8
:020000040000fa
:04034800da030000d4
:020000040000fa
:100400004f8220000e7f22000e01880000000000b5
:10041000000020000000e000020032000001200087
:100420002002880014000700e40007000000e0003c
:1004300003003a00e0a52000010020000200370080
:100440000000200001002000810f70000100320038
:1004500014000700000020000000e000020032004d
:100460000000020000000000f60902000000000089
:100470000040da000000fe004440a90040002000d7
:100480000000e0000300320000002000a00188000e
:100490004440a800000006008a1f78008b1f7800e7
:1004a0000000060091018800800478000000eb0045
:1004b0001a003700e284440032a0b4009905ba0063
:1004c000e284440032a0b4009906ba00e2844400f9
:1004d00032a0b4000006eb00476fde00fd07b2005b
:1004e000636ce10003003a00ebff07000000eb0043
:1004f0000a003700606ce10004003a00005deb0088
:100500008b05e900fdff3e00040037006168e10053
:10051000010032000086eb000b00070019c7ba008b
:100520001905ba000e04e00003003a000a00e000da
:10053000e0ff3a0000000600fe07b2009e018800be
:100540008a047800f5ff3700395dba008b05e900b1
:100550000c003200295dba008b05e900080032006a
:100560000c00e00003003a00e284440032a0b40032
:10057000f5ff370019ddba008b05e900faff3a00f4
:100580008904e800e184440032a0b40000000600c1
:1005900000000000000000003600f800809fbe0050
:1005a000829fbe00849fbe00869fbe003400f8007c
:1005b00000002000a00188000000fa008560a9006a
:1005c0003111800070052000808f500003003a0038
:1005d000cce2a800cd22a80006003700311180002f
:1005e00030052000808f500002003a00cd02a800a4
:1005f000cd62a80021922000803e20000100010071
:10060000cce2a900cd02a900cd22a900cd62a900ab
:100610000080fa003400f9004f03be004f02be0014
:100620004f01be004f00be003600f900004006003a
:100630003600f800809fbe00829fbe00849fbe00ef
:10064000869fbe00881f78003400f800000020005c
:10065000a00188000200fa008420a9005016800042
:10066000700060000000e000030032000a21ef008b
:100670000628ef002a0037005108800010272000cc
:100680000088b900000078006101b80031408000a6
:10069000102720000088b90000007800cf80de001d
:1006a000c000dd0000002000020040008380480000
:1006b00010408800214088000628ef000a21ef0042
:1006c00051088000f06924000008b8004408de00ea
:1006d000000f78001e0078008000eb003a00070051
:1006e0000002be00804184009141840018c0b30024
:1006f0000001be000400be00310007000000e00061
:10070000010034000044eb000804e0000300320064
:1007100010c0b30000e8b700010037000068ef0028
:100720000080fa003400f9004f0478004f03be0047
:100730004f02be004f01be004f00be003600f90060
:1007400000400600801f78003400f8000000200000
:10075000a00188000000fa008500a9003040800058
:100760000000e800304088000080fa003400f90002
:100770004f00780000400600801f78003400f80029
:1007800000002000a00188000000fa008460a90099
:1007900005e1a9000021ef00cca2a9001000200073
:1007a000504088000080fa003400f9004f007800c3
:1007b000004006000040da000000fe0000000500d6
:1007c00014002000810137006011b8009a01370041
:1007d000889fbe008a9fbe008c9fbe001b00200029
:1007e0000202be00058668000600280006066600b4
:1007f0004709de00f20fb200820032000243e80037
:1008000080003200c729de00f30fb2007d00320005
:100810000343e8007b003200f107b2000170a00042
:10082000f507b2000570a000c708dd004903de002f
:10083000868070004700dd00c72add004923de0006
:10084000868272004722dd00030551000403500038
:10085000858358000300310000004000818048007b
:100860000a05e9008c1f78008a9fbe000400500032
:10087000858058000402420085824a000000400042
:10088000818048000005eb000004be006033b80022
:100890000406be000d48e1005600310011000900b9
:1008a0004dccd8000c01b8000d02b8008481410085
:1008b00060824a008283530003045c0084845c00ed
:1008c00060055d000a00e00025003a008005780020
:1008d0000d40e100490031008800780007007800f1
:1008e000110009004d88d8000c01b8000d02b800b5
:1008f0008481410060824a006003110083835b00b1
:1009000004045c00e0845c000900e00021003a007f
:100910004f01be000300e0002b003200e301600045
:10092000070673008c8171000100320064007000c2
:100930004200de004e5edd000c007000c258de009a
:1009400001e0a0009b000700cf01780081807100ca
:100950004f06be004f05be004f04be00000006005b
:100960008c8343000d044c00e0844c0060054d0076
:100970000000e9000a00e000d4ff32008c8343004d
:100980000d044c00e0844c0060054d000000e900bf
:10099000ceff37000c0343008d834b0060044c00f6
:1009a000e0844c000000e9000900e000d8ff3200bc
:1009b0000c0343008d834b0060044c00e0844c002a
:1009c0000000e900d2ff37004200de004e5edd008d
:1009d0000c007000c258de0001e0a000cf017800da
:1009e0000300e000daff320060001000e080180031
:1009f000d7ff3700f0ff2f00aaff3700f0ff2f00ce
:100a0000b9ff37000404be005000070087067800d5
:100a10000004fd008104fd004c0007000783660010
:100a20000678a300030032000960a7000800be009a
:100a30002c0037000d78a300020032000800be0031
:100a4000280037000778a30026003a0001f0a10033
:100a500009f0a1000668a30003003200f1ff27009f
:100a6000f0ff2f00baff37000d68a300030032002b
:100a70000800be008c807000b5ff37000768a30037
:100a800007003a000648a30003003200f1ff2700e8
:100a9000f0ff2f00aeff37000d48a3000300320027
:100aa0006000b8008c807000a9ff37000748a300e1
:100ab0000400320001f82700000020008c80700044
:100ac000a3ff37008e0007000004fd008104fd0035
:100ad000020578008a0007000802be008a0178003b
:100ae00059ff37000160a000120220007240880008
:100af00097ff37000100e000120032000500e0001f
:100b000010003200889fbe008a9fbe008c9fbe00ee
:100b10000006eb0001f8a3000300320060001000a3
:100b2000e08018000cf0a00005f8a30003003200dc
:100b300060021200e0821a000cf0a2008005eb00b7
:100b400041ff37006000b8000200050027002000c8
:100b500001f0a70017002000470bde00f60fb200df
:100b6000040032000643e8000a0032004702b300e6
:100b70000000060001037800f607b20006037000cb
:100b800002003a000703b300000006008702b3002a
:100b90000000060001037800f607b20006037000ab
:100ba000020032000770a000000006000760a000ed
:100bb0000000060081017000270032008002eb0077
:100bc00001f8a3000300320060001000e08018006c
:100bd00015002000f407200002024200200034002b
:100be000f703200087036000060420000003630071
:100bf00002082000000161004700de00c909dd0095
:100c000000807100c708de000600e0000800320026
:100c100087037100060032001000b0000180b000b0
:100c20000188a30002003200c108de000402e800cf
:100c3000f107b200f30f20000320e10003003d00a4
:100c40004722dd00810072002900370001f82700eb
:100c50000000eb00260037006000b800000006002e
:100c6000680212007f20e100020034006000b8003a
:100c70001f0037006011b8007020e100040035004b
:100c800080017800010078008000eb0070025200c3
:100c90000400e00009003400f00312000719dd0031
:100ca0008419de000703dd00868171000400de0088
:100cb000070bdd00060070008408de00f7ff270048
:100cc0008383630087037100060028000303630029
:100cd000070032000700e00003003a0061016000f5
:100ce00002817300020032001000b0000180b000e9
:100cf0000500a6000000060001f0a00000000600ac
:100d00004f0ade004709de00f107b200f20fb20021
:100d10000b003200f207b1000170a000c708dd002f
:100d2000c901de00838070004700dd000400a600da
:100d30000000060060001000e080180000000600bf
:100d4000810f700001003a00000006008182cf0090
:100d50000500e00010003e008082cf00ee824200dd
:100d60007028e1000400390007003e008000780090
:100d70000000eb000e003700708312008600de00da
:100d80000500dd000a003700708352008600dd0098
:100d90000000eb0006003700e28252008508dd000b
:100da000708312000603de00868070000500dd00ff
:100db0007507b0000501ea000400a6000000060067
:100dc00060001000e080180000000600889fbe0050
:100dd0008a9fbe00841f78006c0007004f007800d7
:100de00011003300f0ff2f00838f6c0006003b00e2
:100df000040565000a00a7000800370009f0a600f6
:100e00001000200008003700820f5400838f5c0020
:100e1000030039001000200001003e000000200007
:100e200009f0a7000000ea004f05be004f04be0015
:100e30000000e00000000600889fbe008a9fbe0000
:100e400000827000040271000482710026003200ea
:100e50000004be000200be006011b8006b09200053
:100e6000950220000182cf000a0039000541b1003f
:100e70000082cf00070039000541b1000982cf0090
:100e8000040039000541b1000882cf00010039009b
:100e90000541b10005425200120032000a003b0039
:100ea00082817100610164008100d1000080d30063
:100eb0008984d3000884d3008b05e8000442e8004d
:100ec000f7ff3a00070037000804440089844c000b
:100ed00000004800818048008b05e9000442e900d9
:100ee000f9ff3a00030007004f05be004f04be00a3
:100ef0000000060081002000618055000b003d00cd
:100f00000b00200061fe2f000100e1001d003400f5
:100f100082817100610164008904d1000884d300da
:100f20000000e800faff3a00710020006100640050
:100f300003007000020060000900320061044400f8
:100f4000e0844c000988a500050032008b05e8000c
:100f50006808e10002003a008904d1000884d30047
:100f6000f20f20000258e10005003d00c75ddd00e2
:100f7000f907b200898075000800780000000600bb
:100f80000bf827008b007800000005000004be006d
:100f9000060007000003be000405be000200be00fc
:100fa00002000700844f750000000600c70ade003b
:100fb000f107b200f50fb20008003200e1cf4200a5
:100fc000020032000170a00024000500810f7000b3
:100fd000010032000408050044000500810f700084
:100fe00002003a00140005008502e90000004000fc
:100ff00081c04800fcff3b000170a00024000500f8
:1010000080007800040037003104e00002003a005c
:101010000000510000000600010178000108a30053
:10102000f9ff3a008101780031017800f4ef2f00d8
:10103000020242000281ea00020162000408280064
:1010400004016100f7ff320083007800010178009d
:101050003104e000fdff3a000000510000000600ee
:020000040000fa
:08106000000000000040000048
:020000040000fa
:101068000000fa00213a8000f08f2f000080600015
:10107800203a8800401680000040a00040168800f2
:1010880041168000f0452f0000806000401688005f
:1010980061168000f0452f0000806000601688000f
:1010a8000421ef000021ef0021088000f0fc2f0050
:1010b80000806000200888008460a900000a2000e1
:1010c8001008880005e1a9008460a9009460a800c0
:1010d80021058000f0ff28008080600000002500c6
:1010e80001007000200588001221ef000a21ef009e
:1010f80091088000f0fc2f000080600090088800b4
:101108008500a9000080eb007008880013e1a900a1
:101118000080fa00000006000000fa0042e1a90081
:10112800110a800080ff2f00008060000000a000ee
:10113800100a8800113a8000f00b2000008160003e
:101148006004200071052000237420008049780085
:1011580081497800824978007134800000fe2f00b0
:10116800008060000020a00070348800103a8000e1
:10117800000178000260a0006004200071052000d2
:1011880023742000804978008149780082497800da
:101198001221ef000a21ef0091088000f0fc2f00d7
:1011a80000806000900888008500a9000080eb009e
:1011b8007008880013e1a8008500a9009500a80020
:1011c8004105800080ff2f00008060003000b300e0
:1011d800400588008420a9009420a80021058000eb
:1011e800f0f82f00808060000003200001007000ec
:1011f800200588000080fa00000006000200fa00be
:10120800000f7800404080009e007800014178007f
:1012180001812000827078000000e80040408800ca
:101228000080fa00000006000000fa00cca2a80026
:1012380005e1a8000080fa00000006000200fa009c
:10124800000f7800020037007f3e09000000000010
:101258001e00780000f0a7000000ea000000ea0085
:101268004f00de00004078001e0fe9000004e00097
:10127800f5ff3a000080fa00000006000000fa00be
:10128800213a8000f08f2f0000806000203a88000b
:10129800f0ff290060198800c8c2a900c942a80047
:1012a8002022ef002062a900900120004011880050
:1012b80021e2a8002342a80001118000f0cf2f00ee
:1012c800008060000080a0000011880001118000eb
:1012d80090ff2f0000806000001188002002a90004
:1012e800113a8000f00b20000081600060042000ab
:1012f8007105200023742000804978008149780016
:10130800824978003136800000fe2f00008060009e
:101318003000b300303688002135800000fe2f00f1
:1013280000806000a000b30020358800103a8000db
:10133800000178000260a000600420007105200010
:101348002374200080497800814978008249780018
:101358008560a9009560a80041058000f0ff28007d
:1013680080806000000025000100700040058800b2
:101378000080fa00000006000400fa00881f7800c8
:10138800100798000000eb00000f78000d003700f0
:101398001e0078009e0090000080400010407800f9
:1013a8000000fb00201188000000000011118000df
:1013b80000202000008060000000e000fbff3a00f1
:1013c8001e0fe8001e0478001e0090000aff0700a8
:1013d800800f5400eeff39004f0478000080fa00b7
:1013e800000006000400fa00881f78001cff0700b0
:1013f800a2ff0700007d200090ff07008aff07007a
:1014080000000000504080000000e000fdff3200b6
:101418000000000050168000700060000000e0002e
:10142800fcff320013e1a8000a28ef0000000000ca
:1014380050168000700060000000e000fcff3a00d9
:1014480013e1a900500880008000eb00dcfc0700d5
:10145800008fbe0002002000834624001e00be004c
:10146800d9fc0700008fbe000a21ef0080418400ec
:101478009141840018c0b3000001be001e00be00e8
:10148800cdfc07000000e000010034000044eb0040
:101498000804e000020032000c28ef0002003700c8
:1014a8001000200060408800803e200063ff070095
:0414b800d2ff370028
:020000040000fa
:1014bc0010080000140000000000000000080000ec
:1014cc000e000000000000000e08000002000000ea
:0814dc00000000000000000008
:020000040000fa
:020000040001f9
:0457f8000ff90000a5
:020000040000fa
:020000040001f9
:0457fc007f3f0000eb
:00000001FF
