:020000040000fa
:080000000002040000000000f2
:020000040000fa
:04000800c20300002f
:020000040000fa
:04000c00c20300002b
:020000040000fa
:04001000c203000027
:020000040000fa
:04001400c203000023
:020000040000fa
:04001800c20300001f
:020000040000fa
:04001c00c20300001b
:020000040000fa
:04002000c203000017
:020000040000fa
:04002400c203000013
:020000040000fa
:04002800c20300000f
:020000040000fa
:04002c00fe020000d0
:020000040000fa
:04003000c203000007
:020000040000fa
:04003400a403000021
:020000040000fa
:04003800c2030000ff
:020000040000fa
:04003c00c2030000fb
:020000040000fa
:04004000c2030000f7
:020000040000fa
:04004400c2030000f3
:020000040000fa
:040048008a03000027
:020000040000fa
:04004c00c2030000eb
:020000040000fa
:04005000c2030000e7
:020000040000fa
:04005400c8020000de
:020000040000fa
:04005800c2030000df
:020000040000fa
:04005c00c2030000db
:020000040000fa
:04006000c2030000d7
:020000040000fa
:04006400c2030000d3
:020000040000fa
:04006800c2030000cf
:020000040000fa
:04006c00c2030000cb
:020000040000fa
:04007000c2030000c7
:020000040000fa
:04007400c2030000c3
:020000040000fa
:04007800c2030000bf
:020000040000fa
:04007c00c2030000bb
:020000040000fa
:04008000c2030000b7
:020000040000fa
:04008400c2030000b3
:020000040000fa
:04008800c2030000af
:020000040000fa
:04008c00c2030000ab
:020000040000fa
:04009000c2030000a7
:020000040000fa
:04009400c2030000a3
:020000040000fa
:04009800c20300009f
:020000040000fa
:04009c00c20300009b
:020000040000fa
:0400a000c203000097
:020000040000fa
:0400a400c203000093
:020000040000fa
:0400a800c20300008f
:020000040000fa
:0400ac00c20300008b
:020000040000fa
:0400b000c203000087
:020000040000fa
:0400b400c203000083
:020000040000fa
:0400b800c20300007f
:020000040000fa
:0400bc00c20300007b
:020000040000fa
:0400c000c203000077
:020000040000fa
:0400c400c203000073
:020000040000fa
:0400c800c20300006f
:020000040000fa
:0400cc00c20300006b
:020000040000fa
:0400d000c203000067
:020000040000fa
:0400d400c203000063
:020000040000fa
:0400d800c20300005f
:020000040000fa
:0400dc00c20300005b
:020000040000fa
:0400e000c203000057
:020000040000fa
:0400e400c203000053
:020000040000fa
:0400e800c20300004f
:020000040000fa
:0400ec00c20300004b
:020000040000fa
:0400f000c203000047
:020000040000fa
:0400f400c203000043
:020000040000fa
:0400f800c20300003f
:020000040000fa
:0400fc00c20300003b
:020000040000fa
:04010000c203000036
:020000040000fa
:04010400c203000032
:020000040000fa
:04010800c20300002e
:020000040000fa
:04010c00c20300002a
:020000040000fa
:04011000c203000026
:020000040000fa
:04011400c203000022
:020000040000fa
:04011800c20300001e
:020000040000fa
:04011c00c20300001a
:020000040000fa
:04012000c203000016
:020000040000fa
:04012400c203000012
:020000040000fa
:04012800c20300000e
:020000040000fa
:04012c00c20300000a
:020000040000fa
:04013000c203000006
:020000040000fa
:04013400c203000002
:020000040000fa
:04013800c2030000fe
:020000040000fa
:04013c00c2030000fa
:020000040000fa
:04014000c2030000f6
:020000040000fa
:04014400c2030000f2
:020000040000fa
:04014800c2030000ee
:020000040000fa
:04020800c20300002d
:020000040000fa
:04020c00c203000029
:020000040000fa
:04021000c203000025
:020000040000fa
:04021400c203000021
:020000040000fa
:04021800c20300001d
:020000040000fa
:04021c00c203000019
:020000040000fa
:04022000c203000015
:020000040000fa
:04022400c203000011
:020000040000fa
:04022800c20300000d
:020000040000fa
:04022c00fe020000ce
:020000040000fa
:04023000c203000005
:020000040000fa
:04023400a40300001f
:020000040000fa
:04023800c2030000fd
:020000040000fa
:04023c00c2030000f9
:020000040000fa
:04024000c2030000f5
:020000040000fa
:04024400c2030000f1
:020000040000fa
:040248008a03000025
:020000040000fa
:04024c00c2030000e9
:020000040000fa
:04025000c2030000e5
:020000040000fa
:04025400c8020000dc
:020000040000fa
:04025800c2030000dd
:020000040000fa
:04025c00c2030000d9
:020000040000fa
:04026000c2030000d5
:020000040000fa
:04026400c2030000d1
:020000040000fa
:04026800c2030000cd
:020000040000fa
:04026c00c2030000c9
:020000040000fa
:04027000c2030000c5
:020000040000fa
:04027400c2030000c1
:020000040000fa
:04027800c2030000bd
:020000040000fa
:04027c00c2030000b9
:020000040000fa
:04028000c2030000b5
:020000040000fa
:04028400c2030000b1
:020000040000fa
:04028800c2030000ad
:020000040000fa
:04028c00c2030000a9
:020000040000fa
:04029000c2030000a5
:020000040000fa
:04029400c2030000a1
:020000040000fa
:04029800c20300009d
:020000040000fa
:04029c00c203000099
:020000040000fa
:0402a000c203000095
:020000040000fa
:0402a400c203000091
:020000040000fa
:0402a800c20300008d
:020000040000fa
:0402ac00c203000089
:020000040000fa
:0402b000c203000085
:020000040000fa
:0402b400c203000081
:020000040000fa
:0402b800c20300007d
:020000040000fa
:0402bc00c203000079
:020000040000fa
:0402c000c203000075
:020000040000fa
:0402c400c203000071
:020000040000fa
:0402c800c20300006d
:020000040000fa
:0402cc00c203000069
:020000040000fa
:0402d000c203000065
:020000040000fa
:0402d400c203000061
:020000040000fa
:0402d800c20300005d
:020000040000fa
:0402dc00c203000059
:020000040000fa
:0402e000c203000055
:020000040000fa
:0402e400c203000051
:020000040000fa
:0402e800c20300004d
:020000040000fa
:0402ec00c203000049
:020000040000fa
:0402f000c203000045
:020000040000fa
:0402f400c203000041
:020000040000fa
:0402f800c20300003d
:020000040000fa
:0402fc00c203000039
:020000040000fa
:04030000c203000034
:020000040000fa
:04030400c203000030
:020000040000fa
:04030800c20300002c
:020000040000fa
:04030c00c203000028
:020000040000fa
:04031000c203000024
:020000040000fa
:04031400c203000020
:020000040000fa
:04031800c20300001c
:020000040000fa
:04031c00c203000018
:020000040000fa
:04032000c203000014
:020000040000fa
:04032400c203000010
:020000040000fa
:04032800c20300000c
:020000040000fa
:04032c00c203000008
:020000040000fa
:04033000c203000004
:020000040000fa
:04033400c203000000
:020000040000fa
:04033800c2030000fc
:020000040000fa
:04033c00c2030000f8
:020000040000fa
:04034000c2030000f4
:020000040000fa
:04034400c2030000f0
:020000040000fa
:04034800c2030000ec
:020000040000fa
:100400004f8220000e7f22000e01880000000000b5
:10041000000020000000e000020032000001200087
:100420002002880014000700d80007000000e00048
:1004300003003a00a07d20000100200002003700e8
:100440000000200001002000810f70000100320038
:1004500014000700000020000000e000020032004d
:100460000000020000000000ca07020000000000b7
:100470000040da000000fe004440a90040002000d7
:100480000000e0000300320000002000a00188000e
:100490004440a800000006008a1f78008b1f7800e7
:1004a0000000060091018800800478000000eb0045
:1004b0001a003700e284440032a0b4009905ba0063
:1004c000e284440032a0b4009906ba00e2844400f9
:1004d00032a0b4000006eb00476fde00fd07b2005b
:1004e000636ce10003003a00ebff07000000eb0043
:1004f0000a003700606ce10004003a00005deb0088
:100500008b05e900fdff3e00040037006168e10053
:10051000010032000086eb000b00070019c7ba008b
:100520001905ba000e04e00003003a000a00e000da
:10053000e0ff3a0000000600fe07b2009e018800be
:100540008a047800f5ff3700395dba008b05e900b1
:100550000c003200295dba008b05e900080032006a
:100560000c00e00003003a00e284440032a0b40032
:10057000f5ff370019ddba008b05e900faff3a00f4
:100580008904e800e184440032a0b40000000600c1
:100590003600f800809fbe00821f78003400f8000b
:1005a00000002000a00188000000fa008560a9007a
:1005b000404080003111800001417800018120001d
:1005c00082707800404080008000e80040012000f8
:1005d00000017800110009008200d8008000fd00b1
:1005e000404088000080fa003400f9004f01780094
:1005f0004f00be003600f900004006003600f8004b
:10060000809fbe00829fbe00849fbe00869fbe006a
:10061000881f78003400f80000002000a001880046
:100620000200fa008420a900511680000000210079
:10063000008060000000e000030032000a21ef00ab
:100640000628ef002a0037005108800010272000fc
:100650000088b900000078006101b80031408000d6
:10066000102720000088b90000007800cf80de004d
:10067000c000dd0000002000020040008380480030
:1006800010408800214088000628ef000a21ef0072
:1006900051088000f06924000008b8004408de001a
:1006a000000f78001e0078008000eb005500070066
:1006b0000002be00002984001129840018c0b30084
:1006c0000001be000400be00310007000000e00091
:1006d000010034000044eb000804e0000300320095
:1006e00010c0b30000e8b700010037000068ef0059
:1006f0000080fa003400f9004f0478004f03be0078
:100700004f02be004f01be004f00be003600f90090
:1007100000400600801f78003400f8000000200030
:10072000a00188000000fa008500a9003040800088
:100730000000e800304088000080fa003400f90032
:100740004f00780000400600801f78003400f80059
:1007500000002000a00188000000fa008460a900c9
:1007600005e1a9000021ef00c482a90010002000cb
:10077000604088000080fa003400f9004f007800e3
:10078000004006000040da000000fe000000050006
:1007900014002000320037000001be001b000700db
:1007a0000470a70003f0a10003f8a30013003a00af
:1007b0006509b10010003200090035006928e10028
:1007c0000200350001002800000005000000400084
:1007d000818048008502e900fcff3a000000060025
:1007e000f88f4200050035008100d1000080d30061
:1007f0008502e800fcff3a00000006008000eb00e4
:10080000000005006011b80030003700c70ade00a4
:10081000f107b200f50fb20008003200e1cf42004c
:10082000020032000170a00024000500810f70005a
:10083000010032000408050044000500810f70002b
:1008400002003a00140005008502e90000004000a3
:1008500081c04800fcff3b000170a000240005009f
:10086000889fbe008a9fbe00841f78006c0007002e
:100870004f00780011003300f0ff2f00838f6c00d1
:1008800006003b00040565000a00a70008003700c9
:1008900009f0a6001000200008003700820f540065
:1008a000838f5c00030039001000200001003e002f
:1008b0000000200009f0a7000000ea004f05be007c
:1008c0004f04be000000e00000000600889fbe004c
:1008d0008a9fbe00008270000402710004827100d1
:1008e000260032000004be000200be006011b80005
:1008f0006b092000950220000182cf000a00390018
:100900000541b1000082cf00070039000541b10068
:100910000982cf00040039000541b1000882cf00f0
:10092000010039000541b1000542520012003200b9
:100930000a003b0082817100610164008100d100e6
:100940000080d3008984d3000884d3008b05e8009d
:100950000442e800f7ff3a000700370008044400ab
:1009600089844c0000004800818048008b05e90024
:100970000442e900f9ff3a00030007004f05be00fa
:100980004f04be0000000600810020006180550079
:100990000b003d000b00200061fe2f000100e10074
:1009a0001d00340082817100610164008904d1005e
:1009b0000884d3000000e800faff3a00710020002c
:1009c0006100640003007000020060000900320052
:1009d00061044400e0844c000988a5000500320051
:1009e0008b05e8006808e10002003a008904d100a4
:1009f0000884d300f20f20000258e10005003d00fa
:100a0000c75ddd00f907b200898075000800780035
:100a1000000006000bf827008b007800000005009e
:100a20000004be0079ff07000003be000405be00fd
:100a30000200be0075ff0700844f7500000006002d
:020000040000fa
:080a400000000000004000006e
:020000040000fa
:100a48000000fa00213a8000f08f2f00008060003b
:100a5800203a880041168000400021000100700003
:100a6800401688004116800070442f000080600006
:100a7800401688000116800050fe2f00008060009c
:100a88000016880061168000f0452f000080600085
:100a980060168800201680000010a000201688002c
:100aa8000421ef000021ef0021088000f0fc2f0056
:100ab80000806000200888008460a900000a2000e7
:100ac8001008880005e1a9008460a9009460a800c6
:100ad80021058000f0ff28008080600000002500cc
:100ae80001007000200588001221ef000a21ef00a4
:100af80091088000f0fc2f000080600090088800ba
:100b08008500a9000080eb007008880013e1a900a7
:100b18000080fa00000006000000fa0042e1a90087
:100b2800110a800080ff2f00008060000000a000f4
:100b3800100a8800113a8000f00b20000081600044
:100b4800600420007105200023742000804978008b
:100b580081497800824978007134800000fe2f00b6
:100b680000806000c000b30070348800103a800034
:100b7800000178000260a0006004200071052000d8
:100b880023742000804978008149780082497800e0
:100b98001221ef000a21ef0091088000f0fc2f00dd
:100ba80000806000900888008500a9000080eb00a4
:100bb8007008880013e1a8008500a9009500a80026
:100bc8004105800080ff2f00008060003000b300e6
:100bd800400588008420a9009420a80021058000f1
:100be800f0f82f00808060000003200001007000f2
:100bf800200588000080fa00000006000000fa00c6
:100c080041e2a90040c2a90042a2a80041e2a8000e
:100c18008540a9009540a80041058000f08f2f006d
:100c28000080600000a0a00040058800113a800004
:100c3800f00b200000816000600420007105200096
:100c4800237420008049780081497800824978001f
:100c58004135800000fe2f00008060000010a000d9
:100c68004035880011368000f00f2e00808060002b
:100c780000702000010070001036880021368000c6
:100c880000fe2f00008060000030a00020368800a1
:100c980021368000f00f2e00808060000090200038
:100ca8000100700020368800103a800000017800aa
:100cb8000260a00060042000710520002374200059
:100cc8008049780081497800824978000080fa00dc
:100cd800000006000200fa00000f78004040800083
:100ce8009e00780001417800018120008270780020
:100cf8000000e800404088000080fa00000006007c
:100d08000000fa00c482a80005e1a8000080fa00eb
:100d1800000006000200fa00000f78000200370009
:100d28007f3e0900000000001e00780000f0a700c8
:100d38000000ea000000ea004f00de0000407800f2
:100d48001e0fe9000004e000f5ff3a000080fa00f9
:100d5800000006000000fa00213a8000f08f2f0002
:100d680000806000203a8800f0ff290060198800a0
:100d7800c8c2a900c942a8002022ef002062a90029
:100d8800900120004011880021e2a8002342a80019
:100d980001118000f0cf2f00008060000080a000cb
:100da800001188000111800090ff2f000080600072
:100db800001188002002a900113a8000f00b2000e1
:100dc8000081600060042000710520002374200069
:100dd800804978008149780082497800313680005e
:100de80000fe2f00008060003000b300303688001d
:100df8002135800000fe2f0000806000a000b300b5
:100e080020358800103a8000000178000260a000b8
:100e180060042000710520002374200080497800b8
:100e280081497800824978008560a9009560a8000a
:100e380041058000f0ff2800808060000000250048
:100e480001007000400588000080fa0000000600dc
:100e58000600fa00200798002000200010079800dc
:100e68000000eb00000f78000d0037001e0078002e
:100e7800ae00900000804000104078000000fb00a9
:100e880020118800000000001111800000202000bf
:100e9800008060000000e000fbff3a001e0fe80041
:100ea8001e0090009e007800808f5000efff3500f4
:100eb8000080fa00000006000600fa0020079800eb
:100ec8000000eb00100798000000eb00000f78000e
:100ed8000f0037001e0078004200dd00ae009000d1
:100ee800008040001000be0029fe070000007800c6
:100ef800201188000000000011118000002020004f
:100f0800008060000000e000fbff3a001e0fe800d0
:100f18001e0078000000e000eeff34000080fa00b8
:100f2800000006000200fa004140800050408000a6
:100f3800808f500002003a00e0c4b300110037006f
:100f4800704080000000e00002003a00e0c4b300f6
:100f58000c0037005040800001812000614f78006c
:100f6800504080008000e800400120000001780027
:100f7800110009008200d8008000fd005040880060
:100f88001e4078000080fa00000006000000fa0009
:100f9800abfe07006fff070018ff0700007d200069
:0c0fa8005cff07004822ef00feff37004e
:020000040000fa
:100fb40010080000140000000000000000080000f9
:0c0fc40010000000000000000000000011
:020000040000fa
:020000040001f9
:0457f8000ff90000a5
:020000040000fa
:020000040001f9
:0457fc007f3f0000eb
:00000001FF
