:020000040000fa
:080000000002040000000000f2
:020000040000fa
:04000800a20300004f
:020000040000fa
:04000c00a20300004b
:020000040000fa
:04001000a203000047
:020000040000fa
:04001400a203000043
:020000040000fa
:04001800a20300003f
:020000040000fa
:04001c00a20300003b
:020000040000fa
:04002000a203000037
:020000040000fa
:04002400a203000033
:020000040000fa
:04002800a20300002f
:020000040000fa
:04002c00c802000006
:020000040000fa
:04003000a203000027
:020000040000fa
:04003400a203000023
:020000040000fa
:04003800a20300001f
:020000040000fa
:04003c00a20300001b
:020000040000fa
:04004000a203000017
:020000040000fa
:04004400a203000013
:020000040000fa
:04004800640300004d
:020000040000fa
:04004c00a20300000b
:020000040000fa
:04005000a203000007
:020000040000fa
:04005400780300002d
:020000040000fa
:04005800a2030000ff
:020000040000fa
:04005c00a2030000fb
:020000040000fa
:04006000a2030000f7
:020000040000fa
:04006400a2030000f3
:020000040000fa
:04006800a2030000ef
:020000040000fa
:04006c00a2030000eb
:020000040000fa
:04007000a2030000e7
:020000040000fa
:04007400a2030000e3
:020000040000fa
:04007800a2030000df
:020000040000fa
:04007c00a2030000db
:020000040000fa
:04008000a2030000d7
:020000040000fa
:04008400a2030000d3
:020000040000fa
:04008800a2030000cf
:020000040000fa
:04008c00a2030000cb
:020000040000fa
:04009000a2030000c7
:020000040000fa
:04009400a2030000c3
:020000040000fa
:04009800a2030000bf
:020000040000fa
:04009c00a2030000bb
:020000040000fa
:0400a000a2030000b7
:020000040000fa
:0400a400a2030000b3
:020000040000fa
:0400a800a2030000af
:020000040000fa
:0400ac00a2030000ab
:020000040000fa
:0400b000a2030000a7
:020000040000fa
:0400b400a2030000a3
:020000040000fa
:0400b800a20300009f
:020000040000fa
:0400bc00a20300009b
:020000040000fa
:0400c000a203000097
:020000040000fa
:0400c400a203000093
:020000040000fa
:0400c800a20300008f
:020000040000fa
:0400cc00a20300008b
:020000040000fa
:0400d000a203000087
:020000040000fa
:0400d400a203000083
:020000040000fa
:0400d800a20300007f
:020000040000fa
:0400dc00a20300007b
:020000040000fa
:0400e000a203000077
:020000040000fa
:0400e400a203000073
:020000040000fa
:0400e800a20300006f
:020000040000fa
:0400ec00a20300006b
:020000040000fa
:0400f000a203000067
:020000040000fa
:0400f400a203000063
:020000040000fa
:0400f800a20300005f
:020000040000fa
:0400fc00a20300005b
:020000040000fa
:04010000a203000056
:020000040000fa
:04010400a203000052
:020000040000fa
:04010800a20300004e
:020000040000fa
:04010c00a20300004a
:020000040000fa
:04011000a203000046
:020000040000fa
:04011400a203000042
:020000040000fa
:04011800a20300003e
:020000040000fa
:04011c00a20300003a
:020000040000fa
:04012000a203000036
:020000040000fa
:04012400a203000032
:020000040000fa
:04012800a20300002e
:020000040000fa
:04012c00a20300002a
:020000040000fa
:04013000a203000026
:020000040000fa
:04013400a203000022
:020000040000fa
:04013800a20300001e
:020000040000fa
:04013c00a20300001a
:020000040000fa
:04014000a203000016
:020000040000fa
:04014400a203000012
:020000040000fa
:04014800a20300000e
:020000040000fa
:04020800a20300004d
:020000040000fa
:04020c00a203000049
:020000040000fa
:04021000a203000045
:020000040000fa
:04021400a203000041
:020000040000fa
:04021800a20300003d
:020000040000fa
:04021c00a203000039
:020000040000fa
:04022000a203000035
:020000040000fa
:04022400a203000031
:020000040000fa
:04022800a20300002d
:020000040000fa
:04022c00c802000004
:020000040000fa
:04023000a203000025
:020000040000fa
:04023400a203000021
:020000040000fa
:04023800a20300001d
:020000040000fa
:04023c00a203000019
:020000040000fa
:04024000a203000015
:020000040000fa
:04024400a203000011
:020000040000fa
:04024800640300004b
:020000040000fa
:04024c00a203000009
:020000040000fa
:04025000a203000005
:020000040000fa
:04025400780300002b
:020000040000fa
:04025800a2030000fd
:020000040000fa
:04025c00a2030000f9
:020000040000fa
:04026000a2030000f5
:020000040000fa
:04026400a2030000f1
:020000040000fa
:04026800a2030000ed
:020000040000fa
:04026c00a2030000e9
:020000040000fa
:04027000a2030000e5
:020000040000fa
:04027400a2030000e1
:020000040000fa
:04027800a2030000dd
:020000040000fa
:04027c00a2030000d9
:020000040000fa
:04028000a2030000d5
:020000040000fa
:04028400a2030000d1
:020000040000fa
:04028800a2030000cd
:020000040000fa
:04028c00a2030000c9
:020000040000fa
:04029000a2030000c5
:020000040000fa
:04029400a2030000c1
:020000040000fa
:04029800a2030000bd
:020000040000fa
:04029c00a2030000b9
:020000040000fa
:0402a000a2030000b5
:020000040000fa
:0402a400a2030000b1
:020000040000fa
:0402a800a2030000ad
:020000040000fa
:0402ac00a2030000a9
:020000040000fa
:0402b000a2030000a5
:020000040000fa
:0402b400a2030000a1
:020000040000fa
:0402b800a20300009d
:020000040000fa
:0402bc00a203000099
:020000040000fa
:0402c000a203000095
:020000040000fa
:0402c400a203000091
:020000040000fa
:0402c800a20300008d
:020000040000fa
:0402cc00a203000089
:020000040000fa
:0402d000a203000085
:020000040000fa
:0402d400a203000081
:020000040000fa
:0402d800a20300007d
:020000040000fa
:0402dc00a203000079
:020000040000fa
:0402e000a203000075
:020000040000fa
:0402e400a203000071
:020000040000fa
:0402e800a20300006d
:020000040000fa
:0402ec00a203000069
:020000040000fa
:0402f000a203000065
:020000040000fa
:0402f400a203000061
:020000040000fa
:0402f800a20300005d
:020000040000fa
:0402fc00a203000059
:020000040000fa
:04030000a203000054
:020000040000fa
:04030400a203000050
:020000040000fa
:04030800a20300004c
:020000040000fa
:04030c00a203000048
:020000040000fa
:04031000a203000044
:020000040000fa
:04031400a203000040
:020000040000fa
:04031800a20300003c
:020000040000fa
:04031c00a203000038
:020000040000fa
:04032000a203000034
:020000040000fa
:04032400a203000030
:020000040000fa
:04032800a20300002c
:020000040000fa
:04032c00a203000028
:020000040000fa
:04033000a203000024
:020000040000fa
:04033400a203000020
:020000040000fa
:04033800a20300001c
:020000040000fa
:04033c00a203000018
:020000040000fa
:04034000a203000014
:020000040000fa
:04034400a203000010
:020000040000fa
:04034800a20300000c
:020000040000fa
:10040000cf8320000e7f22000e0188000000000034
:10041000000020000000e000020032000001200087
:100420002002880014000700c80007000000e00058
:1004300003003a002057200001002000020037008e
:100440000000200001002000810f70000100320038
:1004500014000700000020000000e000020032004d
:10046000000002000000000064050200000000001f
:100470000040da000000fe004440a9000000200017
:100480000000e0000300320000002000a00188000e
:100490004440a800000006008a1f78008b1f7800e7
:1004a0000000060091018800800478000000eb0045
:1004b0001a003700e284440032a0b4009905ba0063
:1004c000e284440032a0b4009906ba00e2844400f9
:1004d00032a0b4000006eb00476fde00fd07b2005b
:1004e000636ce10003003a00ebff07000000eb0043
:1004f0000a003700606ce10004003a00005deb0088
:100500008b05e900fdff3e00040037006168e10053
:10051000010032000086eb000b00070019c7ba008b
:100520001905ba000e04e00003003a000a00e000da
:10053000e0ff3a0000000600fe07b2009e018800be
:100540008a047800f5ff3700395dba008b05e900b1
:100550000c003200295dba008b05e900080032006a
:100560000c00e00003003a00e284440032a0b40032
:10057000f5ff370019ddba008b05e900faff3a00f4
:100580008904e800e184440032a0b40000000600c1
:10059000809fbe00829fbe00849fbe003400f80092
:1005a00000002000a00188000400fa008420a900b7
:1005b00002c8bf000004a2000004e0000e003200e8
:1005c000000a80006101b800604080007140800036
:1005d000c000dd00000020000200400083804800d1
:1005e00020408800314088000c28ef000e28ef00e2
:1005f0000a21ef002e003700000a80006101b800d8
:100600006040800071408000c000dd0000002000dc
:10061000020040008380480040408800514088002c
:100620000c28ef000e28ef000a21ef004240800066
:100630005340800020408000314080000000510085
:10064000818059004040880051408800404080002f
:1006500051408000421520000289b9000201780053
:100660006002b900840178000301410043152000b5
:100670000300b80001014100820078008100d10030
:100680000080d300008fbe001e01be0080408000ad
:1006900091408000800f5100818f590003003e007f
:1006a00010c0b30003e8b700010037000368ef0093
:1006b0000080fa003400f9004f02be004f01be0076
:1006c0004f00be00004006003400f800881f78008c
:1006d00008002000a80188004f0478000000fa00fc
:1006e0008500a9000080fa003400f90000400600ef
:1006f000809fbe00829fbe003400f80000002000f2
:10070000a00188000000fa008560a9000040800078
:1007100031118000010178008001400041812000fa
:1007200081804100820878000000e80000408800d5
:100730000080fa003400f9004f01be004f00be00f7
:10074000004006000040da000000fe000000050046
:1007500080007800040037003104e00002003a0015
:100760000000510000000600010178000108a3000c
:10077000f9ff3a008101780031017800f4ef2f0091
:10078000020242000281ea0002016200040828001d
:1007900004016100f7ff3200830078000101780056
:1007a0003104e000fdff3a000000510000000600a7
:020000040000fa
:1007b0000000fa00213a8000f08f2f0000806000d6
:1007c000203a8800c882a800c8a2a900cca2a9002b
:1007d00042e1a800110a8000f0f92f0000806000bb
:1007e000100a8800100a800000f0a000100a88009b
:1007f000113a8000f00b20000081600060042000ae
:100800007105200023742000804978008149780018
:10081000824978007134800000fe2f000080600063
:100820000020a00070348800103a80000001780099
:100830000260a000600420007105200023742000e5
:100840008049780081497800824978001221ef00c0
:100850000a21ef00910880000003200001007000d1
:10086000900888008500a9000080eb0070088800cf
:1008700013e1a8008500a9009500a80041058000ab
:1008800080ff2f00008060005000b300400588000a
:100890008420a9009420a80021058000f0f82f00f2
:1008a00080806000000520000100700020058800a5
:1008b0000080fa00000006000200fa00000f780035
:1008c000020037007f3e0900000000001e00780093
:1008d00000f0a7000000ea000000ea004f00de0080
:1008e000004078001e0fe9000004e000f5ff3a0028
:1008f0000080fa00000006000200fa00a0002000bc
:10090000000f78000200370003000900000000001b
:1009100010c0b3009e0078000100e00001003c0020
:100920000040eb001e0fe9000004e000f6ff3a0073
:100930000080fa00000006000000fa00cca2a80027
:10094000edff0700cca2a9000080fa00000006001d
:100950000000fa00f8ff07000080fa00000006001f
:100960000000fa00213a8000f08f2f000080600024
:10097000203a8800f0ff290060198800c8c2a90049
:10098000c942a8002022ef002062a90090012000a7
:100990004011880021e2a8002342a8000111800034
:1009a000f0cf2f00008060000080a00000118800c0
:1009b0000111800090ff2f0000806000001188006e
:1009c0002002a900113a8000f00b20000081600095
:1009d0006004200071052000237420008049780005
:1009e00081497800824978003136800000fe2f006e
:1009f000008060003000b300303688002135800070
:100a000000fe2f0000806000a000b30020358800a9
:100a1000103a8000000178000260a000600420000d
:100a200071052000237420008049780081497800f6
:100a3000824978008560a9009560a8004105800082
:100a4000f0ff280080806000000025000100700099
:100a5000400588000080fa00000006000400fa004b
:100a6000881f7800100798000000eb00000f780046
:100a70000d0037001e0078009e00900000804000ae
:100a8000104078000000fb002011880000000000ea
:100a90001111800000202000008060000000e000b4
:100aa000fbff3a001e0fe8001e0478001e009000b5
:100ab00027ff0700800f5400eeff39004f04780035
:100ac0000080fa00000006000000fa0038ff07006e
:100ad00099ff070098ff0700007d200076ff0700c0
:040ae000fcff3700e0
:020000040000fa
:100ae40014080000280000000000000000080000b6
:100af40010000000000000001008000004000000c6
:100b040002000000010000000000000000000000de
:020000040000fa
:020000040001f9
:0457f8000ff90000a5
:020000040000fa
:020000040001f9
:0457fc007f3f0000eb
:00000001FF
