:020000040000fa
:080000000002040000000000f2
:020000040000fa
:040008008803000069
:020000040000fa
:04000c008803000065
:020000040000fa
:040010008803000061
:020000040000fa
:04001400880300005d
:020000040000fa
:040018008803000059
:020000040000fa
:04001c008803000055
:020000040000fa
:040020008803000051
:020000040000fa
:04002400880300004d
:020000040000fa
:040028008803000049
:020000040000fa
:04002c00f2020000dc
:020000040000fa
:040030008803000041
:020000040000fa
:040034006e03000057
:020000040000fa
:040038008803000039
:020000040000fa
:04003c008803000035
:020000040000fa
:040040008803000031
:020000040000fa
:04004400880300002d
:020000040000fa
:04004800540300005d
:020000040000fa
:04004c008803000025
:020000040000fa
:040050008803000021
:020000040000fa
:04005400c8020000de
:020000040000fa
:040058008803000019
:020000040000fa
:04005c008803000015
:020000040000fa
:040060008803000011
:020000040000fa
:04006400880300000d
:020000040000fa
:040068008803000009
:020000040000fa
:04006c008803000005
:020000040000fa
:040070008803000001
:020000040000fa
:0400740088030000fd
:020000040000fa
:0400780088030000f9
:020000040000fa
:04007c0088030000f5
:020000040000fa
:0400800088030000f1
:020000040000fa
:0400840088030000ed
:020000040000fa
:0400880088030000e9
:020000040000fa
:04008c0088030000e5
:020000040000fa
:0400900088030000e1
:020000040000fa
:0400940088030000dd
:020000040000fa
:0400980088030000d9
:020000040000fa
:04009c0088030000d5
:020000040000fa
:0400a00088030000d1
:020000040000fa
:0400a40088030000cd
:020000040000fa
:0400a80088030000c9
:020000040000fa
:0400ac0088030000c5
:020000040000fa
:0400b00088030000c1
:020000040000fa
:0400b40088030000bd
:020000040000fa
:0400b80088030000b9
:020000040000fa
:0400bc0088030000b5
:020000040000fa
:0400c00088030000b1
:020000040000fa
:0400c40088030000ad
:020000040000fa
:0400c80088030000a9
:020000040000fa
:0400cc0088030000a5
:020000040000fa
:0400d00088030000a1
:020000040000fa
:0400d400880300009d
:020000040000fa
:0400d8008803000099
:020000040000fa
:0400dc008803000095
:020000040000fa
:0400e0008803000091
:020000040000fa
:0400e400880300008d
:020000040000fa
:0400e8008803000089
:020000040000fa
:0400ec008803000085
:020000040000fa
:0400f0008803000081
:020000040000fa
:0400f400880300007d
:020000040000fa
:0400f8008803000079
:020000040000fa
:0400fc008803000075
:020000040000fa
:040100008803000070
:020000040000fa
:04010400880300006c
:020000040000fa
:040108008803000068
:020000040000fa
:04010c008803000064
:020000040000fa
:040110008803000060
:020000040000fa
:04011400880300005c
:020000040000fa
:040118008803000058
:020000040000fa
:04011c008803000054
:020000040000fa
:040120008803000050
:020000040000fa
:04012400880300004c
:020000040000fa
:040128008803000048
:020000040000fa
:04012c008803000044
:020000040000fa
:040130008803000040
:020000040000fa
:04013400880300003c
:020000040000fa
:040138008803000038
:020000040000fa
:04013c008803000034
:020000040000fa
:040140008803000030
:020000040000fa
:04014400880300002c
:020000040000fa
:040148008803000028
:020000040000fa
:040208008803000067
:020000040000fa
:04020c008803000063
:020000040000fa
:04021000880300005f
:020000040000fa
:04021400880300005b
:020000040000fa
:040218008803000057
:020000040000fa
:04021c008803000053
:020000040000fa
:04022000880300004f
:020000040000fa
:04022400880300004b
:020000040000fa
:040228008803000047
:020000040000fa
:04022c00f2020000da
:020000040000fa
:04023000880300003f
:020000040000fa
:040234006e03000055
:020000040000fa
:040238008803000037
:020000040000fa
:04023c008803000033
:020000040000fa
:04024000880300002f
:020000040000fa
:04024400880300002b
:020000040000fa
:04024800540300005b
:020000040000fa
:04024c008803000023
:020000040000fa
:04025000880300001f
:020000040000fa
:04025400c8020000dc
:020000040000fa
:040258008803000017
:020000040000fa
:04025c008803000013
:020000040000fa
:04026000880300000f
:020000040000fa
:04026400880300000b
:020000040000fa
:040268008803000007
:020000040000fa
:04026c008803000003
:020000040000fa
:0402700088030000ff
:020000040000fa
:0402740088030000fb
:020000040000fa
:0402780088030000f7
:020000040000fa
:04027c0088030000f3
:020000040000fa
:0402800088030000ef
:020000040000fa
:0402840088030000eb
:020000040000fa
:0402880088030000e7
:020000040000fa
:04028c0088030000e3
:020000040000fa
:0402900088030000df
:020000040000fa
:0402940088030000db
:020000040000fa
:0402980088030000d7
:020000040000fa
:04029c0088030000d3
:020000040000fa
:0402a00088030000cf
:020000040000fa
:0402a40088030000cb
:020000040000fa
:0402a80088030000c7
:020000040000fa
:0402ac0088030000c3
:020000040000fa
:0402b00088030000bf
:020000040000fa
:0402b40088030000bb
:020000040000fa
:0402b80088030000b7
:020000040000fa
:0402bc0088030000b3
:020000040000fa
:0402c00088030000af
:020000040000fa
:0402c40088030000ab
:020000040000fa
:0402c80088030000a7
:020000040000fa
:0402cc0088030000a3
:020000040000fa
:0402d000880300009f
:020000040000fa
:0402d400880300009b
:020000040000fa
:0402d8008803000097
:020000040000fa
:0402dc008803000093
:020000040000fa
:0402e000880300008f
:020000040000fa
:0402e400880300008b
:020000040000fa
:0402e8008803000087
:020000040000fa
:0402ec008803000083
:020000040000fa
:0402f000880300007f
:020000040000fa
:0402f400880300007b
:020000040000fa
:0402f8008803000077
:020000040000fa
:0402fc008803000073
:020000040000fa
:04030000880300006e
:020000040000fa
:04030400880300006a
:020000040000fa
:040308008803000066
:020000040000fa
:04030c008803000062
:020000040000fa
:04031000880300005e
:020000040000fa
:04031400880300005a
:020000040000fa
:040318008803000056
:020000040000fa
:04031c008803000052
:020000040000fa
:04032000880300004e
:020000040000fa
:04032400880300004a
:020000040000fa
:040328008803000046
:020000040000fa
:04032c008803000042
:020000040000fa
:04033000880300003e
:020000040000fa
:04033400880300003a
:020000040000fa
:040338008803000036
:020000040000fa
:04033c008803000032
:020000040000fa
:04034000880300002e
:020000040000fa
:04034400880300002a
:020000040000fa
:040348008803000026
:020000040000fa
:100400004f8320000e7f22000e01880000000000b4
:10041000000020000000e000020032000001200087
:100420002002880014000700bb0007000000e00065
:1004300003003a00005720000100200002003700ae
:100440000000200001002000810f70000100320038
:1004500014000700000020000000e000020032004d
:1004600000000200000000005c0502000000000027
:100470000040da000000fe004440a900c000200057
:100480000000e0000300320000002000a00188000e
:100490004440a800000006008a1f78008b1f7800e7
:1004a0000000060091018800800478000000eb0045
:1004b0001a003700e284440032a0b4009905ba0063
:1004c000e284440032a0b4009906ba00e2844400f9
:1004d00032a0b4000006eb00476fde00fd07b2005b
:1004e000636ce10003003a00ebff07000000eb0043
:1004f0000a003700606ce10004003a00005deb0088
:100500008b05e900fdff3e00040037006168e10053
:10051000010032000086eb000b00070019c7ba008b
:100520001905ba000e04e00003003a000a00e000da
:10053000e0ff3a0000000600fe07b2009e018800be
:100540008a047800f5ff3700395dba008b05e900b1
:100550000c003200295dba008b05e900080032006a
:100560000c00e00003003a00e284440032a0b40032
:10057000f5ff370019ddba008b05e900faff3a00f4
:100580008904e800e184440032a0b40000000600c1
:10059000809fbe00829fbe003400f8000000200053
:1005a000a00188000000fa008560a900404080009a
:1005b000311180000101780080014000c1802000dd
:1005c00081804100820878000000e80040408800f7
:1005d0000080fa003400f9004f01be004f00be0059
:1005e00000400600809fbe00829fbe003400f800dd
:1005f00000002000a00188000200fa008420a90069
:1006000050168000700060000000e000030032001f
:100610000a21ef000628ef001e0037005108800075
:10062000102720000088b900000078006101b800a0
:1006300031408000102720000088b90000007800b9
:10064000cf80de00c000dd0000002000020040007e
:100650008380480010408800214088000628ef0071
:100660000a21ef0051088000f06924000008b8005a
:100670004408de00000f7800504080009e0f5000bc
:100680000300390010c0b30000e8b70001003700d4
:100690000068ef000080fa003400f9004f01be004e
:1006a0004f00be0000400600801f78003400f800b4
:1006b00000002000a00188000000fa008500a900c9
:1006c000304080000000e800304088000080fa00e0
:1006d0003400f9004f007800004006003400f800b4
:1006e000881f780008002000a80188004f047800c7
:1006f0000000fa008460a90005e1a9000021ef00d4
:10070000cca2a9000080fa003400f90000400600e5
:100710000040da000000fe000000050080007800c4
:10072000040037003104e00002003a0000005100ec
:1007300000000600010178000108a300f9ff3a005b
:100740008101780031017800f4ef2f0002024200ad
:100750000281ea000201620004082800040161002d
:10076000f7ff320083007800010178003104e000d7
:0c077000fdff3a000000510000000600f0
:020000040000fa
:10077c00415400002b55000041520000543f000032
:08078c000d0a0000000000004e
:020000040000fa
:100794000000fa00213a8000f08f2f0000806000f2
:1007a400203a8800c882a800c8a2a900c8e2a9000b
:1007b400c902a900c922a900c962a900cca2a90042
:1007c400cce2a900cd02a900cd22a900cd62a900e6
:1007d40042e1a900110a800080ff2f000080600020
:1007e4000000a000100a8800113a8000f00b2000dd
:1007f4000081600060042000710520002374200043
:1008040080497800814978008249780071348000f9
:1008140000fe2f00008060000020a00070348800db
:10082400103a8000000178000260a00060042000fb
:1008340071052000237420008049780081497800e4
:10084400824978001221ef000a21ef00910880000c
:10085400f0fc2f0000806000900888008500a9004b
:100864000080eb007008880013e1a8008500a9004f
:100874009500a8004105800080ff2f0000806000e3
:100884003000b300400588008420a9009420a8000b
:1008940021058000f0f82f00808060000003200014
:1008a40001007000200588000421ef000021ef0002
:1008b40021088000f0fc2f000080600020088800e0
:1008c4008460a900000a20001008880005e1a9003e
:1008d4008460a9009460a80021058000f0ff28002e
:1008e4008080600000002500010070002005880061
:1008f4000080fa00000006000000fa00cca2a80064
:1009040005e1a8000080fa00000006000200fa00d9
:10091400000f7800020037007f3e0900000000004d
:100924001e00780000f0a7000000ea000000ea00c2
:100934004f00de00004078001e0fe9000004e000d4
:10094400f5ff3a000080fa00000006000000fa00fb
:10095400213a8000f08f2f0000806000203a880048
:10096400f0ff290060198800c8c2a900c942a80084
:100974002022ef002062a90090012000401188008d
:1009840021e2a8002342a80001118000f0cf2f002b
:10099400008060000080a000001188000111800028
:1009a40090ff2f0000806000001188002002a90041
:1009b400113a8000f00b20000081600060042000e8
:1009c4007105200023742000804978008149780053
:1009d400824978003136800000fe2f0000806000dc
:1009e4003000b300303688002135800000fe2f002f
:1009f40000806000a000b30020358800103a800019
:100a0400000178000260a00060042000710520004d
:100a14002374200080497800814978008249780055
:100a24008560a9009560a80041058000f0ff2800ba
:100a340080806000000025000100700040058800ef
:100a44000080fa00000006000400fa00881f780005
:100a5400100798000000eb00000f78000d0037002d
:100a64001e0078009e009000008040001040780036
:100a74000000fb002011880000000000111180001c
:100a840000202000008060000000e000fbff3a002e
:100a94001e0fe8001e0478001e0090001eff0700d1
:100aa400800f5400eeff39004f0478000080fa00f4
:100ab400000006000000fa0035ff0700a3ff07004e
:100ac400007d200091ff0700007d20008fff0700bc
:0c0ad400e03b2800dcff0700fbff3700c0
:020000040000fa
:100ae0000c080000280000000000000000080000c2
:100af0000a000000000000000a08000002000000d8
:0c0b0000020000000100000000000000e6
:020000040000fa
:020000040001f9
:0457f8000ff90000a5
:020000040000fa
:020000040001f9
:0457fc007f3f0000eb
:00000001FF
