:020000040000fa
:080000000002040000000000f2
:020000040000fa
:04000800e20300000f
:020000040000fa
:04000c00e20300000b
:020000040000fa
:04001000e203000007
:020000040000fa
:04001400e203000003
:020000040000fa
:04001800e2030000ff
:020000040000fa
:04001c00e2030000fb
:020000040000fa
:04002000e2030000f7
:020000040000fa
:04002400e2030000f3
:020000040000fa
:04002800e2030000ef
:020000040000fa
:04002c001e030000af
:020000040000fa
:04003000e2030000e7
:020000040000fa
:04003400c403000001
:020000040000fa
:04003800e2030000df
:020000040000fa
:04003c00e2030000db
:020000040000fa
:04004000e2030000d7
:020000040000fa
:04004400e2030000d3
:020000040000fa
:04004800aa03000007
:020000040000fa
:04004c00e2030000cb
:020000040000fa
:04005000d4020000d6
:020000040000fa
:04005400e8020000be
:020000040000fa
:04005800e2030000bf
:020000040000fa
:04005c00e2030000bb
:020000040000fa
:04006000e2030000b7
:020000040000fa
:04006400e2030000b3
:020000040000fa
:04006800e2030000af
:020000040000fa
:04006c00e2030000ab
:020000040000fa
:04007000e2030000a7
:020000040000fa
:04007400e2030000a3
:020000040000fa
:04007800e20300009f
:020000040000fa
:04007c00e20300009b
:020000040000fa
:04008000e203000097
:020000040000fa
:04008400e203000093
:020000040000fa
:04008800e20300008f
:020000040000fa
:04008c00e20300008b
:020000040000fa
:04009000e203000087
:020000040000fa
:04009400e203000083
:020000040000fa
:04009800e20300007f
:020000040000fa
:04009c00e20300007b
:020000040000fa
:0400a000e203000077
:020000040000fa
:0400a400e203000073
:020000040000fa
:0400a800e20300006f
:020000040000fa
:0400ac00e20300006b
:020000040000fa
:0400b000e203000067
:020000040000fa
:0400b400e203000063
:020000040000fa
:0400b800e20300005f
:020000040000fa
:0400bc00e20300005b
:020000040000fa
:0400c000e203000057
:020000040000fa
:0400c400e203000053
:020000040000fa
:0400c800e20300004f
:020000040000fa
:0400cc00e20300004b
:020000040000fa
:0400d000e203000047
:020000040000fa
:0400d400e203000043
:020000040000fa
:0400d800e20300003f
:020000040000fa
:0400dc00e20300003b
:020000040000fa
:0400e000e203000037
:020000040000fa
:0400e400e203000033
:020000040000fa
:0400e800e20300002f
:020000040000fa
:0400ec00e20300002b
:020000040000fa
:0400f000e203000027
:020000040000fa
:0400f400e203000023
:020000040000fa
:0400f800e20300001f
:020000040000fa
:0400fc00e20300001b
:020000040000fa
:04010000e203000016
:020000040000fa
:04010400e203000012
:020000040000fa
:04010800e20300000e
:020000040000fa
:04010c00e20300000a
:020000040000fa
:04011000e203000006
:020000040000fa
:04011400e203000002
:020000040000fa
:04011800e2030000fe
:020000040000fa
:04011c00e2030000fa
:020000040000fa
:04012000e2030000f6
:020000040000fa
:04012400e2030000f2
:020000040000fa
:04012800e2030000ee
:020000040000fa
:04012c00e2030000ea
:020000040000fa
:04013000e2030000e6
:020000040000fa
:04013400e2030000e2
:020000040000fa
:04013800e2030000de
:020000040000fa
:04013c00e2030000da
:020000040000fa
:04014000e2030000d6
:020000040000fa
:04014400e2030000d2
:020000040000fa
:04014800e2030000ce
:020000040000fa
:04020800e20300000d
:020000040000fa
:04020c00e203000009
:020000040000fa
:04021000e203000005
:020000040000fa
:04021400e203000001
:020000040000fa
:04021800e2030000fd
:020000040000fa
:04021c00e2030000f9
:020000040000fa
:04022000e2030000f5
:020000040000fa
:04022400e2030000f1
:020000040000fa
:04022800e2030000ed
:020000040000fa
:04022c001e030000ad
:020000040000fa
:04023000e2030000e5
:020000040000fa
:04023400c4030000ff
:020000040000fa
:04023800e2030000dd
:020000040000fa
:04023c00e2030000d9
:020000040000fa
:04024000e2030000d5
:020000040000fa
:04024400e2030000d1
:020000040000fa
:04024800aa03000005
:020000040000fa
:04024c00e2030000c9
:020000040000fa
:04025000d4020000d4
:020000040000fa
:04025400e8020000bc
:020000040000fa
:04025800e2030000bd
:020000040000fa
:04025c00e2030000b9
:020000040000fa
:04026000e2030000b5
:020000040000fa
:04026400e2030000b1
:020000040000fa
:04026800e2030000ad
:020000040000fa
:04026c00e2030000a9
:020000040000fa
:04027000e2030000a5
:020000040000fa
:04027400e2030000a1
:020000040000fa
:04027800e20300009d
:020000040000fa
:04027c00e203000099
:020000040000fa
:04028000e203000095
:020000040000fa
:04028400e203000091
:020000040000fa
:04028800e20300008d
:020000040000fa
:04028c00e203000089
:020000040000fa
:04029000e203000085
:020000040000fa
:04029400e203000081
:020000040000fa
:04029800e20300007d
:020000040000fa
:04029c00e203000079
:020000040000fa
:0402a000e203000075
:020000040000fa
:0402a400e203000071
:020000040000fa
:0402a800e20300006d
:020000040000fa
:0402ac00e203000069
:020000040000fa
:0402b000e203000065
:020000040000fa
:0402b400e203000061
:020000040000fa
:0402b800e20300005d
:020000040000fa
:0402bc00e203000059
:020000040000fa
:0402c000e203000055
:020000040000fa
:0402c400e203000051
:020000040000fa
:0402c800e20300004d
:020000040000fa
:0402cc00e203000049
:020000040000fa
:0402d000e203000045
:020000040000fa
:0402d400e203000041
:020000040000fa
:0402d800e20300003d
:020000040000fa
:0402dc00e203000039
:020000040000fa
:0402e000e203000035
:020000040000fa
:0402e400e203000031
:020000040000fa
:0402e800e20300002d
:020000040000fa
:0402ec00e203000029
:020000040000fa
:0402f000e203000025
:020000040000fa
:0402f400e203000021
:020000040000fa
:0402f800e20300001d
:020000040000fa
:0402fc00e203000019
:020000040000fa
:04030000e203000014
:020000040000fa
:04030400e203000010
:020000040000fa
:04030800e20300000c
:020000040000fa
:04030c00e203000008
:020000040000fa
:04031000e203000004
:020000040000fa
:04031400e203000000
:020000040000fa
:04031800e2030000fc
:020000040000fa
:04031c00e2030000f8
:020000040000fa
:04032000e2030000f4
:020000040000fa
:04032400e2030000f0
:020000040000fa
:04032800e2030000ec
:020000040000fa
:04032c00e2030000e8
:020000040000fa
:04033000e2030000e4
:020000040000fa
:04033400e2030000e0
:020000040000fa
:04033800e2030000dc
:020000040000fa
:04033c00e2030000d8
:020000040000fa
:04034000e2030000d4
:020000040000fa
:04034400e2030000d0
:020000040000fa
:04034800e2030000cc
:020000040000fa
:100400008f8220000e7f22000e0188000000000075
:10041000000020000000e000020032000001200087
:100420002002880014000700e80007000000e00038
:1004300003003a00c0a320000100200002003700a2
:100440000000200001002000810f70000100320038
:1004500014000700000020000000e000020032004d
:100460000000020000000000fc0902000000000083
:100470000040da000000fe004440a900a000200077
:100480000000e0000300320000002000a00188000e
:100490004440a800000006008a1f78008b1f7800e7
:1004a0000000060091018800800478000000eb0045
:1004b0001a003700e284440032a0b4009905ba0063
:1004c000e284440032a0b4009906ba00e2844400f9
:1004d00032a0b4000006eb00476fde00fd07b2005b
:1004e000636ce10003003a00ebff07000000eb0043
:1004f0000a003700606ce10004003a00005deb0088
:100500008b05e900fdff3e00040037006168e10053
:10051000010032000086eb000b00070019c7ba008b
:100520001905ba000e04e00003003a000a00e000da
:10053000e0ff3a0000000600fe07b2009e018800be
:100540008a047800f5ff3700395dba008b05e900b1
:100550000c003200295dba008b05e900080032006a
:100560000c00e00003003a00e284440032a0b40032
:10057000f5ff370019ddba008b05e900faff3a00f4
:100580008904e800e184440032a0b40000000600c1
:1005900000000000000000000000fa008620a90012
:1005a0000080fa00004006003400f800881f780040
:1005b00008002000a80188004f0478000000fa001d
:1005c0008540a9000080fa003400f90000400600d0
:1005d0003600f800809fbe00821f78003400f800cb
:1005e00000002000a00188000000fa008560a9003a
:1005f000404080003111800001417800418120009d
:1006000082707800404080008000e80040012000b7
:1006100000017800110009008200d8008000fd0070
:10062000404088000080fa003400f9004f01780053
:100630004f00be003600f900004006003600f8000a
:10064000809fbe00829fbe00849fbe00869fbe002a
:10065000881f78003400f80000002000a001880006
:100660000200fa008420a900511680000000210039
:10067000008060000000e000030032000a21ef006b
:100680000628ef002a0037005108800010272000bc
:100690000088b900000078006101b8003140800096
:1006a000102720000088b90000007800cf80de000d
:1006b000c000dd00000020000200400083804800f0
:1006c00010408800214088000628ef000a21ef0032
:1006d00051088000f06924000008b8004408de00da
:1006e000000f78001e0078008000eb005500070026
:1006f0000002be00002a8400112a840018c0b30042
:100700000001be000400be00310007000000e00050
:10071000010034000044eb000804e0000300320054
:1007200010c0b30000e8b700010037000068ef0018
:100730000080fa003400f9004f0478004f03be0037
:100740004f02be004f01be004f00be003600f90050
:1007500000400600801f78003400f80000002000f0
:10076000a00188000000fa008500a9003040800048
:100770000000e800304088000080fa003400f900f2
:100780004f00780000400600801f78003400f80019
:1007900000002000a00188000000fa008460a90089
:1007a00005e1a9000021ef00c482a900100020008b
:1007b000604088000080fa003400f9004f007800a3
:1007c000004006000040da000000fe0000000500c6
:1007d00014002000320037000001be001b0007009b
:1007e0000470a70003f0a10003f8a30013003a006f
:1007f0006509b10010003200090035006928e100e8
:100800000200350001002800000005000000400043
:10081000818048008502e900fcff3a0000000600e4
:10082000f88f4200050035008100d1000080d30020
:100830008502e800fcff3a00000006008000eb00a3
:10084000000005006011b80030003700c70ade0064
:10085000f107b200f50fb20008003200e1cf42000c
:10086000020032000170a00024000500810f70001a
:10087000010032000408050044000500810f7000eb
:1008800002003a00140005008502e9000000400063
:1008900081c04800fcff3b000170a000240005005f
:1008a000889fbe008a9fbe00841f78006c000700ee
:1008b0004f00780011003300f0ff2f00838f6c0091
:1008c00006003b00040565000a00a7000800370089
:1008d00009f0a6001000200008003700820f540025
:1008e000838f5c00030039001000200001003e00ef
:1008f0000000200009f0a7000000ea004f05be003c
:100900004f04be000000e00000000600889fbe000b
:100910008a9fbe0000827000040271000482710090
:10092000260032000004be000200be006011b800c4
:100930006b092000950220000182cf000a003900d7
:100940000541b1000082cf00070039000541b10028
:100950000982cf00040039000541b1000882cf00b0
:10096000010039000541b100054252001200320079
:100970000a003b0082817100610164008100d100a6
:100980000080d3008984d3000884d3008b05e8005d
:100990000442e800f7ff3a0007003700080444006b
:1009a00089844c0000004800818048008b05e900e4
:1009b0000442e900f9ff3a00030007004f05be00ba
:1009c0004f04be0000000600810020006180550039
:1009d0000b003d000b00200061fe2f000100e10034
:1009e0001d00340082817100610164008904d1001e
:1009f0000884d3000000e800faff3a0071002000ec
:100a00006100640003007000020060000900320011
:100a100061044400e0844c000988a5000500320010
:100a20008b05e8006808e10002003a008904d10063
:100a30000884d300f20f20000258e10005003d00b9
:100a4000c75ddd00f907b2008980750008007800f5
:100a5000000006000bf827008b007800000005005e
:100a60000004be0079ff07000003be000405be00bd
:100a70000200be0075ff0700844f750000000600ed
:020000040000fa
:100a80000000000000400000022c00002d020000c9
:040a90002c2d000009
:020000040000fa
:100a94001000fa00c462a80050c5b300004f7800eb
:100aa40020c0b30010479800c0c2b300204798008c
:100ab400d0c2b3003047980020c0b300404798002c
:100ac400c0c2b30050479800d0c2b300604798003a
:100ad400e70047004254280005000900b258780096
:100ae40010c5b300504f9800d0c4b300604f9800b5
:100af400039b2000120020008e007800a003200039
:100b040003000100039b20000e00e80032002000d7
:100b140080007800100b200003000100039b2000dc
:100b2400640047003200200080007800200b200081
:100b340003000100039b20006700470062002000bf
:100b440080007800300b200003000100039b20008c
:100b54006d0047002200200080007800500c200027
:100b640003000100039b20000001eb008e007800cd
:100b74001002200003000100039b20000001eb0091
:100b84008e0078001001200003000100039b200068
:100b94000001eb008e00780030012000030001000a
:100ba400039b20000001eb008e00780090022000df
:100bb40003000100039b20000001eb008e0078007d
:100bc400c0022000030001000080fa0000000600bb
:100bd4000000fa00213a8000f08f2f0000806000ae
:100be400203a880061198000f0ff210001007000a4
:100bf4006019880041168000400021000100700047
:100c04004016880041168000707c28000080600037
:100c1400401688000116800050fe2f0000806000fe
:100c24000016880061168000f0472f0000806000e5
:100c340060168800cca2a80020168000a000b30093
:100c4400201688000600fc0011028000f141b20069
:100c5400110288000421ef000021ef002108800028
:100c6400f0fc2f0000806000200888008460a90048
:100c7400000a20001008880005e1a9008460a9008a
:100c84009460a80021058000f0ff280080806000a7
:100c94000000250001007000200588001221ef00eb
:100ca4000a21ef0091088000f0fc2f000080600012
:100cb400900888008500a9000080eb007008880077
:100cc40013e1a9000080fa00000006000000fa0009
:100cd40042e1a900110a800080ff2f00008060001b
:100ce4000000a000100a8800113a8000f00b2000d8
:100cf400008160006004200071052000237420003e
:100d040080497800814978008249780071348000f4
:100d140000fe2f0000806000c000b3007034880023
:100d2400103a8000000178000260a00060042000f6
:100d340071052000237420008049780081497800df
:100d4400824978001221ef000a21ef009108800007
:100d5400f0fc2f0000806000900888008500a90046
:100d64000080eb007008880013e1a8008500a9004a
:100d74009500a8004105800080ff2f0000806000de
:100d84003000b300400588008420a9009420a80006
:100d940021058000f0f82f0080806000000320000f
:100da40001007000200588000080fa0000000600a1
:100db4000000fa0007e2a900d009200020108800f2
:100dc4008620a90007e2a8000080fa0000000600bf
:100dd4000000fa0041e2a90040c2a90042a2a80012
:100de4000112800030fe2f00008060004001b3003b
:100df4000012880041e2a8004402a9008540a9002d
:100e04009540a80041058000f08f2f00008060000d
:100e140000a0a00040058800113a8000f00b2000db
:100e2400008160006004200071052000237420000c
:100e340080497800814978008249780041358000f2
:100e440000fe2f00008060000010a00040358800e4
:100e540011368000f00f2e008080600000702000aa
:100e640001007000103688002136800000fe2f003b
:100e7400008060000030a000203688002136800009
:100e8400f00f2e00808060000090200001007000b0
:100e940020368800103a8000000178000260a0002b
:100ea400600420007105200023742000804978002c
:100eb40081497800824978000080fa000000060029
:100ec4000000fa00213a8000f08f2f0000806000bb
:100ed400203a8800f0ff290060198800c8c2a900e0
:100ee400c942a8002022ef002062a900900120003e
:100ef4004011880021e2a8002342a80001118000cb
:100f0400f0cf2f00008060000080a0000011880056
:100f14000111800090ff2f00008060000011880004
:100f24002002a900113a8000f00b2000008160002b
:100f3400600420007105200023742000804978009b
:100f440081497800824978003136800000fe2f0004
:100f5400008060003000b300303688002135800006
:100f640000fe2f0000806000a000b3002035880040
:100f7400103a8000000178000260a00060042000a4
:100f8400710520002374200080497800814978008d
:100f9400824978008560a9009560a8004105800019
:100fa400f0ff280080806000000025000100700030
:100fb400400588000080fa00000006000200fa00e4
:100fc400000f7800020037007f3e09000000000097
:100fd4001e00780000f0a7000000ea000000ea000c
:100fe4004f00de00004078001e0fe9000004e0001e
:100ff400f5ff3a000080fa00000006000000fa0045
:10100400c482a80005e1a8000080fa0000000600e0
:101014000600fa002007980020002000100798001e
:101024000000eb00000f78000d0037001e00780070
:10103400ae00900000804000104078000000fb00eb
:101044002011880000000000111180000020200001
:10105400008060000000e000fbff3a001e0fe80083
:101064001e0090009e007800808f5000efff350036
:101074000080fa00000006000600fa00200798002d
:101084000000eb00100798000000eb00000f780050
:101094000f0037001e0078004200dd00ae00900013
:1010a400008040001000be00cafd07000000780068
:1010b4002011880000000000111180000020200091
:1010c400008060000000e000fbff3a001e0fe80013
:1010d4001e0078000000e000eeff34000080fa00fb
:1010e400000006000200fa004140800050408000e9
:1010f400808f500002003a00e0c4b30011003700b2
:10110400704080000000e00002003a00e0c4b30038
:101114000c0037005040800041812000614f78006e
:10112400504080008000e800400120000001780069
:10113400110009008200d8008000fd0050408800a2
:101144001e4078000080fa00000006000200fa0049
:10115400004f7800cca2a9001e80fb00401288003a
:101164000000000000128000610060000000e00048
:10117400fcff3200cca2a80040128000004078009e
:101184000080fa00000006000000fa008620a90092
:101194000602a8000000000030108000610060001a
:1011a4000000e000fcff3a00000000003004800072
:1011b400620060000000e000fcff32008620a9000d
:1011c400000d200010108800000000003004800092
:1011d400620060000000e000fcff32008620a900ed
:1011e400b0062000101088000000000030048000c9
:1011f400620060000000e000fcff32008620a900cd
:101204000622a80000000000301080006200600088
:101214000000e000fcff3a00000000003004800001
:10122400620060000000e000fcff32008620a9009c
:10123400000d200010108800000000003004800021
:10124400620060000000e000fcff32008620a9007c
:101254000222ef0000000000300480006200600001
:101264000000e000fcff32008620a9000642a8002e
:101274000000000030108000640060000000e00006
:10128400fcff3a00000000003004800062006000af
:101294000000e000fcff32008620a9000080fa0074
:1012a400000006000000fa008620a9000602a8003b
:1012b4000000000030108000610060000000e000c9
:1012c400fcff3a000000000030048000620060006f
:1012d4000000e000fcff32008620a900100d200071
:1012e40010108800000000003004800062006000dc
:1012f4000000e000fcff32008620a9000662a8007e
:101304000000000030108000680060000000e00071
:10131400fcff3a00001080008000eb0048fd07004d
:1013240080408800914088000642a8000000000028
:1013340030108000640060000000e000fcff3a0010
:101344000000000030048000620060000000e00043
:10135400fcff32000080fa00000006000800fa00da
:10136400204798002107980032079800c422a9005a
:101374002e40900075ff0700c422a8003e00900094
:101384000000e0000d0032000000eb00000f7800c8
:10139400060037001e007800ae0090000080400078
:1013a4001040780069ff07001e0fe8009e007800d7
:1013b4003e009000808f5000f6ff39000080fa0054
:1013c400000006000400fa00100798000001eb007a
:1013d4008000eb00c0c2b300e0ff07000000eb0098
:1013e400000f7800a0cab30058ff07001e0fe800e2
:1013f400fcff37000000fa00f5fd070074fe07004b
:10140400affe07006afe070000802400811e200052
:101414000a0007009efd070000402200410f200043
:10142400060007000000eb00e6ff07000040220072
:0c143400410f200001000700faff370004
:020000040000fa
:10144000f03fb1000180b10006003500ee03090055
:1014500000000000403fb1000180b100fbff3d00f3
:101460001000b000203fb0000200350000800900ed
:0814700000000000000006006e
:020000040000fa
:10147800140800001400000000000000000800002c
:0c14880014000000000000000000000044
:020000040000fa
:020000040001f9
:0457f8000ff90000a5
:020000040000fa
:020000040001f9
:0457fc007f3f0000eb
:00000001FF
