:020000040000fa
:080000000002040000000000f2
:020000040000fa
:04000800ec03000005
:020000040000fa
:04000c00ec03000001
:020000040000fa
:04001000ec030000fd
:020000040000fa
:04001400ec030000f9
:020000040000fa
:04001800ec030000f5
:020000040000fa
:04001c00ec030000f1
:020000040000fa
:04002000ec030000ed
:020000040000fa
:04002400ec030000e9
:020000040000fa
:04002800ec030000e5
:020000040000fa
:04002c0028030000a5
:020000040000fa
:04003000ec030000dd
:020000040000fa
:04003400ce030000f7
:020000040000fa
:04003800ec030000d5
:020000040000fa
:04003c00ec030000d1
:020000040000fa
:04004000ec030000cd
:020000040000fa
:04004400ec030000c9
:020000040000fa
:04004800b4030000fd
:020000040000fa
:04004c00ec030000c1
:020000040000fa
:04005000d4020000d6
:020000040000fa
:04005400e8020000be
:020000040000fa
:04005800ec030000b5
:020000040000fa
:04005c00ec030000b1
:020000040000fa
:04006000ec030000ad
:020000040000fa
:04006400ec030000a9
:020000040000fa
:04006800ec030000a5
:020000040000fa
:04006c00ec030000a1
:020000040000fa
:04007000ec0300009d
:020000040000fa
:04007400ec03000099
:020000040000fa
:04007800ec03000095
:020000040000fa
:04007c00ec03000091
:020000040000fa
:04008000ec0300008d
:020000040000fa
:04008400ec03000089
:020000040000fa
:04008800ec03000085
:020000040000fa
:04008c00ec03000081
:020000040000fa
:04009000ec0300007d
:020000040000fa
:04009400ec03000079
:020000040000fa
:04009800ec03000075
:020000040000fa
:04009c00ec03000071
:020000040000fa
:0400a000ec0300006d
:020000040000fa
:0400a400ec03000069
:020000040000fa
:0400a800ec03000065
:020000040000fa
:0400ac00ec03000061
:020000040000fa
:0400b000ec0300005d
:020000040000fa
:0400b400ec03000059
:020000040000fa
:0400b800ec03000055
:020000040000fa
:0400bc00ec03000051
:020000040000fa
:0400c000ec0300004d
:020000040000fa
:0400c400ec03000049
:020000040000fa
:0400c800ec03000045
:020000040000fa
:0400cc00ec03000041
:020000040000fa
:0400d000ec0300003d
:020000040000fa
:0400d400ec03000039
:020000040000fa
:0400d800ec03000035
:020000040000fa
:0400dc00ec03000031
:020000040000fa
:0400e000ec0300002d
:020000040000fa
:0400e400ec03000029
:020000040000fa
:0400e800ec03000025
:020000040000fa
:0400ec00ec03000021
:020000040000fa
:0400f000ec0300001d
:020000040000fa
:0400f400ec03000019
:020000040000fa
:0400f800ec03000015
:020000040000fa
:0400fc00ec03000011
:020000040000fa
:04010000ec0300000c
:020000040000fa
:04010400ec03000008
:020000040000fa
:04010800ec03000004
:020000040000fa
:04010c00ec03000000
:020000040000fa
:04011000ec030000fc
:020000040000fa
:04011400ec030000f8
:020000040000fa
:04011800ec030000f4
:020000040000fa
:04011c00ec030000f0
:020000040000fa
:04012000ec030000ec
:020000040000fa
:04012400ec030000e8
:020000040000fa
:04012800ec030000e4
:020000040000fa
:04012c00ec030000e0
:020000040000fa
:04013000ec030000dc
:020000040000fa
:04013400ec030000d8
:020000040000fa
:04013800ec030000d4
:020000040000fa
:04013c00ec030000d0
:020000040000fa
:04014000ec030000cc
:020000040000fa
:04014400ec030000c8
:020000040000fa
:04014800ec030000c4
:020000040000fa
:04020800ec03000003
:020000040000fa
:04020c00ec030000ff
:020000040000fa
:04021000ec030000fb
:020000040000fa
:04021400ec030000f7
:020000040000fa
:04021800ec030000f3
:020000040000fa
:04021c00ec030000ef
:020000040000fa
:04022000ec030000eb
:020000040000fa
:04022400ec030000e7
:020000040000fa
:04022800ec030000e3
:020000040000fa
:04022c0028030000a3
:020000040000fa
:04023000ec030000db
:020000040000fa
:04023400ce030000f5
:020000040000fa
:04023800ec030000d3
:020000040000fa
:04023c00ec030000cf
:020000040000fa
:04024000ec030000cb
:020000040000fa
:04024400ec030000c7
:020000040000fa
:04024800b4030000fb
:020000040000fa
:04024c00ec030000bf
:020000040000fa
:04025000d4020000d4
:020000040000fa
:04025400e8020000bc
:020000040000fa
:04025800ec030000b3
:020000040000fa
:04025c00ec030000af
:020000040000fa
:04026000ec030000ab
:020000040000fa
:04026400ec030000a7
:020000040000fa
:04026800ec030000a3
:020000040000fa
:04026c00ec0300009f
:020000040000fa
:04027000ec0300009b
:020000040000fa
:04027400ec03000097
:020000040000fa
:04027800ec03000093
:020000040000fa
:04027c00ec0300008f
:020000040000fa
:04028000ec0300008b
:020000040000fa
:04028400ec03000087
:020000040000fa
:04028800ec03000083
:020000040000fa
:04028c00ec0300007f
:020000040000fa
:04029000ec0300007b
:020000040000fa
:04029400ec03000077
:020000040000fa
:04029800ec03000073
:020000040000fa
:04029c00ec0300006f
:020000040000fa
:0402a000ec0300006b
:020000040000fa
:0402a400ec03000067
:020000040000fa
:0402a800ec03000063
:020000040000fa
:0402ac00ec0300005f
:020000040000fa
:0402b000ec0300005b
:020000040000fa
:0402b400ec03000057
:020000040000fa
:0402b800ec03000053
:020000040000fa
:0402bc00ec0300004f
:020000040000fa
:0402c000ec0300004b
:020000040000fa
:0402c400ec03000047
:020000040000fa
:0402c800ec03000043
:020000040000fa
:0402cc00ec0300003f
:020000040000fa
:0402d000ec0300003b
:020000040000fa
:0402d400ec03000037
:020000040000fa
:0402d800ec03000033
:020000040000fa
:0402dc00ec0300002f
:020000040000fa
:0402e000ec0300002b
:020000040000fa
:0402e400ec03000027
:020000040000fa
:0402e800ec03000023
:020000040000fa
:0402ec00ec0300001f
:020000040000fa
:0402f000ec0300001b
:020000040000fa
:0402f400ec03000017
:020000040000fa
:0402f800ec03000013
:020000040000fa
:0402fc00ec0300000f
:020000040000fa
:04030000ec0300000a
:020000040000fa
:04030400ec03000006
:020000040000fa
:04030800ec03000002
:020000040000fa
:04030c00ec030000fe
:020000040000fa
:04031000ec030000fa
:020000040000fa
:04031400ec030000f6
:020000040000fa
:04031800ec030000f2
:020000040000fa
:04031c00ec030000ee
:020000040000fa
:04032000ec030000ea
:020000040000fa
:04032400ec030000e6
:020000040000fa
:04032800ec030000e2
:020000040000fa
:04032c00ec030000de
:020000040000fa
:04033000ec030000da
:020000040000fa
:04033400ec030000d6
:020000040000fa
:04033800ec030000d2
:020000040000fa
:04033c00ec030000ce
:020000040000fa
:04034000ec030000ca
:020000040000fa
:04034400ec030000c6
:020000040000fa
:04034800ec030000c2
:020000040000fa
:100400000f8320000e7f22000e01880000000000f4
:10041000000020000000e000020032000001200087
:100420002002880014000700ed0007000000e00033
:1004300003003a00e0f22000010020000200370033
:100440000000200001002000810f70000100320038
:1004500014000700000020000000e000020032004d
:1004600000000200000000000c0f0200000000006d
:100470000040da000000fe004440a900a000200077
:100480000000e0000300320000002000a00188000e
:100490004440a800000006008a1f78008b1f7800e7
:1004a0000000060091018800800478000000eb0045
:1004b0001a003700e284440032a0b4009905ba0063
:1004c000e284440032a0b4009906ba00e2844400f9
:1004d00032a0b4000006eb00476fde00fd07b2005b
:1004e000636ce10003003a00ebff07000000eb0043
:1004f0000a003700606ce10004003a00005deb0088
:100500008b05e900fdff3e00040037006168e10053
:10051000010032000086eb000b00070019c7ba008b
:100520001905ba000e04e00003003a000a00e000da
:10053000e0ff3a0000000600fe07b2009e018800be
:100540008a047800f5ff3700395dba008b05e900b1
:100550000c003200295dba008b05e900080032006a
:100560000c00e00003003a00e284440032a0b40032
:10057000f5ff370019ddba008b05e900faff3a00f4
:100580008904e800e184440032a0b40000000600c1
:1005900000000000000000000000fa008620a90012
:1005a0000080fa00004006003400f800881f780040
:1005b00008002000a80188004f0478000000fa001d
:1005c0008540a9000080fa003400f90000400600d0
:1005d0003600f800809fbe00829fbe00849fbe0050
:1005e000869fbe003400f80000002000a0018800b3
:1005f0000000fa008560a900470207004040800023
:100600003111800001417800c181200082707800a2
:10061000404080008000e800400120000001780098
:10062000110009008200d8008000fd0040408800d1
:100630000080fa003400f9004f03be004f02be00f4
:100640004f01be004f00be003600f900004006001a
:100650003600f800809fbe00829fbe00849fbe00cf
:10066000869fbe00881f78003400f800000020003c
:10067000a00188000200fa008420a9005116800021
:1006800000002100008060000000e0000300320054
:100690000a21ef000628ef002a00370051088000e9
:1006a000102720000088b900000078006101b80020
:1006b00031408000102720000088b9000000780039
:1006c000cf80de00c000dd000000200002004000fe
:1006d0008380480010408800214088000628ef00f1
:1006e0000a21ef0051088000f06924000008b800da
:1006f0004408de00000f78001e0078008000eb0048
:10070000580007000002be00a03b8400b13b8400fb
:1007100018c0b3000001be000400be003100070095
:100720000000e000010034000044eb000804e00099
:100730000300320010c0b30000e8b700010037002a
:100740000068ef000080fa003400f9004f047800e0
:100750004f03be004f02be004f01be004f00be005f
:100760003600f90000400600801f78003400f800d1
:1007700000002000a00188000000fa008500a90008
:10078000304080000000e800304088000080fa001f
:100790003400f9004f00780000400600801f780008
:1007a0003400f80000002000a00188000000fa00da
:1007b0008460a90005e1a9000021ef00c482a9001e
:1007c00010002000604088000080fa003400f9002a
:1007d0004f007800004006000040da000000fe00f4
:1007e0000000050014002000370137000001be00a2
:1007f0001e0007000470a70003f0a10003f8a30087
:1008000013003a006509b1001000320009003500fc
:100810006928e10002003500010028000000050001
:1008200000004000818048008502e900fcff3a009a
:1008300000000600f88f4200050035008100d1005d
:100840000080d3008502e800fcff3a0000000600ab
:100850008000eb00000005004f89de008201780077
:10086000340137006011b80042013700c70ade00ca
:10087000f107b200f50fb20008003200e1cf4200ec
:10088000020032000170a00024000500810f7000fa
:10089000010032000408050044000500810f7000cb
:1008a00002003a00140005008502e9000000400043
:1008b00081c04800fcff3b000170a000240005003f
:1008c000038368000700280007036300470ade006f
:1008d0000480a100c71ade000580a100f70f2000e8
:1008e0000720e100420032000728e100400032000a
:1008f000889fbe008a9fbe008c1f7800f107b2005f
:10090000f307b2000400e000640032000170a000b0
:100910000500e000680032000370a0008505420079
:10092000eb07b1000204b8000302b800848444005d
:1009300060854a00020ab800848444000a854a009f
:10094000030ab80004054500040033000804d00081
:100950008984d2000a85d2008b05e9006158e10044
:100960003d0035000210200009016100030820004d
:1009700089816100f707200087836400088673007f
:10098000c84cde00c853dd00878474004855de0083
:100990000300e0000600320082037600040032000b
:1009a0008904e80060054d000a88a3000c003a00a5
:1009b000f70f20000758e10044003d000a70a10035
:1009c000c75ddd000a8575008a00730009007800a4
:1009d0004f0678004f05be004f04be000000060021
:1009e0000a05d1008984d3008b05e800f0ff3700a9
:1009f000881f78000604780090000700070278003e
:100a00000001fd008101fd008c00070087027800d5
:100a1000850372000778a300050032000001fd0085
:100a20008101fd009f0007004f04780000000600d0
:100a3000850372000748a30003003200f0ff2f0077
:100a4000f1ff2700f8ff37000000200001f8270021
:100a500088807000f4ff3700880178004848dd0086
:100a6000808171004848de00c850dd000100700040
:100a7000c850de00060478000b017800160007005d
:100a800088807000d2ff37000500e00005003200ca
:100a9000170020003a0007009dff37008103700017
:100aa000f9ff3a00860078004f0678004f05be0037
:100ab0004f04be000000050083037100f9ff3200ff
:100ac000270020002e00070094ff370001f82700c0
:100ad00086807000f4ff37000100e000260032003d
:100ae000610111007810e10023003c006022b80091
:100af0007010e100040035008002780001007800e9
:100b00008000eb00700151000200e0000900340099
:100b100070031100062add00822ade008603dd0054
:100b2000878272000200de00860bdd000700700085
:100b30008208de0084817100f4ff270004826200d5
:100b400084817100040028008482620061026000d8
:100b500005f0a600000006000482710007003200c4
:100b60000000e800e0804800000006000002be002f
:100b70006000b800efff37006000b800000006001a
:100b8000889fbe000004eb006138e10016003a00c7
:100b90000100e00008003a00c800de004800dd0067
:100ba000880020000100e00003003a00c800de00d9
:100bb0004800dd00680444008184cf00e9845400cb
:100bc000060034008908dd00f08314008703de008e
:100bd000878070000900dd000904440061021400f0
:100be0004f04be00000006000300e00008003a00c9
:100bf000c811de004811dd00880020000300e0007d
:100c000003003a00c811de004811dd00680444000a
:100c10008384cf00e9845400060034008919dd0084
:100c2000f08314008713de00878171000911dd0055
:100c300009044400e1021400e9ff37002700200006
:100c400001f0a70017002000470bde00f60fb200ee
:100c5000040032000643e8000a0032004702b300f5
:100c60000000060001037800f607b20006037000da
:100c700002003a000703b300000006008702b30039
:100c80000000060001037800f607b20006037000ba
:100c9000020032000770a000000006000760a000fc
:100ca000000006000478a300040032000578a300c9
:100cb000030032000168a30001003a000200be00f8
:100cc0000160a00000000600889fbe008a9fbe0051
:100cd000841f78007c0007004f007800110033006b
:100ce000f0ff2f00838f6c0006003b0004056500b9
:100cf0000a00a7000800370009f0a6001000200035
:100d000008003700820f5400838f5c000300390015
:100d10001000200001003e000000200009f0a700a4
:100d20000000ea004f05be004f04be000000e000d6
:100d300000000600881f7800030478000300e0002c
:100d400007003d0060001000e080180060011900fd
:100d5000e081190002003b0001f02d000300370084
:100d60000400070008f0a70001f0a0004f0478007d
:100d700000000600889fbe008a9fbe0000827000af
:100d80000402710004827100260032000004be00db
:100d90000200be006011b8006b092000950220001f
:100da0000182cf000a0039000541b1000082cf0066
:100db000070039000541b1000982cf000400390065
:100dc0000541b1000882cf00010039000541b100a2
:100dd00005425200120032000a003b00828171007d
:100de000610164008100d1000080d3008984d300b8
:100df0000884d3008b05e8000442e800f7ff3a00be
:100e0000070037000804440089844c0000004800b3
:100e1000818048008b05e9000442e900f9ff3a00af
:100e2000030007004f05be004f04be00000006008f
:100e300081002000618055000b003d000b00200068
:100e400061fe2f000100e1001d003400828171006d
:100e5000610164008904d1000884d3000000e80027
:100e6000faff3a0071002000610064000300700086
:100e7000020060000900320061044400e0844c007c
:100e80000988a500050032008b05e8006808e1002c
:100e900002003a008904d1000884d300f20f200038
:100ea0000258e10005003d00c75ddd00f907b20012
:100eb0008980750008007800000006000bf8270004
:100ec0008b007800000005000004be0067fe0700ec
:100ed0000003be000405be000200be0063fe070062
:080ee000844f750000000600bc
:020000040000fa
:100ee8000000000000400000022c00002d0200005d
:040ef8002c2d00009d
:020000040000fa
:100efc000000fa009460a9009540a9009420a90074
:100f0c000040fe000080fa00000006000000fa001d
:100f1c009460a9009540a9009420a9000080fa00d3
:100f2c00000006000000fa00871f7800881f780078
:100f3c000500fc0057052000373b8800a80a20005c
:100f4c00383b880027a6a8004f047800cf03780010
:100f5c000080fa00000006000200fa00004f780042
:100f6c001e80fb004400de00004078006a00b900df
:100f7c0000007800804078001e4178006f406100ce
:100f8c0000c040000080fa00000006000400fa00d7
:100f9c00204798002e4090008080fb00d0cc2c0085
:100fac000008b8004308de0000407800c401dd00f2
:100fbc002e4090000081fb00d0cc2c000010b8001b
:100fcc004308de006a00b900000078000000510000
:100fdc000040780000cf41001e4078000080fa00ed
:100fec00000006000c00fa00881f7800200798000b
:100ffc006147980072479800034f9800144f98006f
:10100c00254f9800364f9800c6ff070027e6a8002a
:10101c003131800000302000010070003031880038
:10102c00ae009000a0002000000178001100090023
:10103c008200d8008000fd00004278002e01900054
:10104c00706626000090b900c288de004f90de006a
:10105c0080805000706626000089b9004299de003d
:10106c004f88de00000051006a01b90002007800d0
:10107c0000805000004078006a00b9000000780041
:10108c000040780000404200004f78001e4078007d
:10109c00beff07000080fb00203188006e409000ee
:1010ac00baff07000080fb004804dd007e40900082
:1010bc00b6ff07000080fb0008007000203188009c
:1010cc000e489000b1ff07000080fb004804dd00d3
:1010dc001e489000adff07000080fb000800700068
:1010ec00203188002e489000a8ff07000080fb00ec
:1010fc004804dd003e489000a4ff07000080fb0080
:10110c00080070002031880027a6a900500120009b
:10111c00100798009e00900070272500008040006a
:10112c00100798004f0478000080fa0000000600b9
:10113c000a00fa00313180000030200001007000fc
:10114c003031880020318000000f78002031800081
:10115c001007980020318000200798002031800073
:10116c00300798001e007800004078007aff0700d6
:10117c008080fb0040812000010878001e00900058
:10118c004880de000040780073ff07008040780044
:10119c0040812000214098001e0090000040780003
:1011ac006dff07008040780040812000314098009e
:1011bc002e0090004880de000040780066ff07009b
:1011cc008040780040812000414098002e00900023
:1011dc000040780060ff07008040780040812000cc
:1011ec00514098003e0090004880de00004078009e
:1011fc0059ff070080407800408120006140980032
:10120c003e0090000040780053ff070080407800bb
:10121c004081200071409800500120004007980048
:10122c00ce009000702725000080400040079800f9
:10123c000080fa00000006000000fa00213a80004d
:10124c00f08f2f0000806000203a88006119800028
:10125c00f0ff210001007000601988004116800029
:10126c0040002100010070004016880041168000eb
:10127c00707c2800008060004016880001168000f9
:10128c0050fe2f0000806000001688006116800060
:10129c00f0472f000080600060168800cca2a800e8
:1012ac0020168000a000b300201688000600fc0069
:1012bc0011028000f141b200110288000421ef00fc
:1012cc000021ef0021088000f0fc2f00008060005e
:1012dc00200888008460a900000a200010088800fb
:1012ec0005e1a9008460a9009460a8002105800094
:1012fc00f0ff2800808060000000250001007000d5
:10130c00200588001221ef000a21ef0091088000cf
:10131c00f0fc2f0000806000900888008500a90078
:10132c000080eb007008880013e1a9000080fa002f
:10133c00000006000000fa0042e1a900110a80003a
:10134c0080ff2f00008060000000a000100a8800c1
:10135c00113a8000f00b2000008160006004200036
:10136c0071052000237420008049780081497800a1
:10137c00824978007134800000fe2f0000806000ec
:10138c00c000b30070348800103a8000000178006f
:10139c000260a0006004200071052000237420006e
:1013ac008049780081497800824978001221ef0049
:1013bc000a21ef0091088000f0fc2f0000806000f3
:1013cc00900888008500a9000080eb007008880058
:1013dc0013e1a8008500a9009500a8004105800034
:1013ec0080ff2f00008060003000b30040058800b3
:1013fc008420a9009420a80021058000f0f82f007b
:10140c00808060000003200001007000200588002f
:10141c000080fa00000006000000fa0007e2a900b4
:10142c00d0092000201088008620a90007e2a8001f
:10143c000080fa00000006000000fa0041e2a9005a
:10144c0040c2a90042a2a8000112800030fe2f0069
:10145c00008060004001b3000012880041e2a80047
:10146c004402a9008540a9009540a80041058000d0
:10147c00f08f2f000080600000a0a00040058800c5
:10148c00113a8000f00b2000008160006004200005
:10149c007105200023742000804978008149780070
:1014ac00824978004135800000fe2f0000806000ea
:1014bc000010a0004035880011368000f00f2e007f
:1014cc0080806000007020000100700010368800e1
:1014dc002136800000fe2f00008060000030a0004c
:1014ec002036880021368000f00f2e0080806000ae
:1014fc00009020000100700020368800103a800017
:10150c00000178000260a00060042000710520003a
:10151c002374200080497800814978008249780042
:10152c000080fa00000006000000fa00213a80005a
:10153c00f08f2f0000806000203a8800f0ff290017
:10154c0060198800c8c2a900c942a8002022ef0077
:10155c002062a900900120004011880021e2a8001f
:10156c002342a80001118000f0cf2f000080600002
:10157c000080a000001188000111800090ff2f0056
:10158c0000806000001188002002a900113a800040
:10159c00f00b200000816000600420007105200029
:1015ac0023742000804978008149780082497800b2
:1015bc003136800000fe2f00008060003000b30048
:1015cc00303688002135800000fe2f00008060003e
:1015dc00a000b30020358800103a8000000178008c
:1015ec000260a0006004200071052000237420001c
:1015fc008049780081497800824978008560a9008b
:10160c009560a80041058000f0ff280080806000f4
:10161c000000250001007000400588000080fa00e1
:10162c00000006000000fa008620a9000602a800af
:10163c000000000030108000610060000000e0003d
:10164c00fcff3a00000000003004800062006000e3
:10165c000000e000fcff32008620a9000080fa00a8
:10166c00000006000000fa008620a9000642a8002f
:10167c000000000030108000640060000000e000fa
:10168c00fcff3a000080fa00000006000200fa009d
:10169c00004f78001e80fb00101088000000000036
:1016ac0030048000620060000000e000fcff3200ab
:1016bc008620a9000080fa00000006000200fa0053
:1016cc0000108000004f78001e4078000080fa0067
:1016dc00000006000400fa00004f78001147980043
:1016ec00224798001e40780000404000e7ff0700aa
:1016fc001e409000e5ff07002e409000e3ff07001e
:10170c000080fa00000006000400fa002047980050
:10171c00314798002e40900000404000dbff07004e
:10172c003e409000d9ff0700ceff0700bdff070029
:10173c002e4090000080fb0000004000004078002c
:10174c000004a000d1ff07000662a8000000000002
:10175c0030108000680060000000e000fcff3a00e0
:10176c0000108000004f78001e4078000080fa00c6
:10177c00000006000200fa00004f780011479800a4
:10178c00a8ff07001e4190009e40780080c6b30061
:10179c00d0ff0700b3ff07000080fa00000006002e
:1017ac000400fa00204798009eff0700ae4090000e
:1017bc0080c6b300d4ff0700004f7800a9ff0700d4
:1017cc001e4078000080fa00000006000400fa00b9
:1017dc00204798002e4090000080fb00e10f500045
:1017ec000f003200e10f500003003c000000e0004d
:1017fc000600320017003700e20f50000c003200d8
:10180c00e30f50000e00320012003700606c2f0006
:10181c00c1a1230080408800914088000d00370052
:10182c00609c2f00b1a92300804088009140880063
:10183c00f0562f00c1b123008040880091408800f1
:10184c00f0562f00c1b923008040880091408800d9
:10185c00000000008040eb00b0c6b300c5ff0700dd
:10186c00c0c1b300ceff0700004f780070ceb300ac
:10187c001e4f60002e4090000080fb004300dd00f6
:10188c00804078001e40780000c07000004f780047
:10189c009e407800c0c1b300b6ff07000080fa007c
:1018ac00000006002000fa00b0c3b300bcff070024
:1018bc000080fb00000f7800c0c3b300b8ff070026
:1018cc000080fb0010079800d0c3b300b4ff0700e2
:1018dc000080fb0020079800e0c3b300b0ff0700b6
:1018ec000080fb0030079800f0c3b300acff07008a
:1018fc000080fb004007980000c4b300a8ff07005d
:10190c000080fb00500798001e007800c800dd0026
:10191c001e00900001007000600798002e009000df
:10192c00c800dd003e0090000100700070079800b8
:10193c004e009000c800dd005e00900001007000b9
:10194c00000f98006e009000cf80de00bffb0700f8
:10195c000002be0080408000914080000001be006b
:10196c000400be00d3fb0700100f9800210f980055
:10197c007e009000cf80de00b4fb07000002be00aa
:10198c0080408000914080000001be000400be0039
:10199c00c8fb0700300f9800410f98000e0890000c
:1019ac00cf80de00a9fb07000002be008040800053
:1019bc00914080000001be000400be00bdfb07008a
:1019cc00500f9800610f980030032000700f9800a2
:1019dc007e0890000000e800700f98000080fa006c
:1019ec00000006001000fa00c462a80050c5b30045
:1019fc00004f780020c0b30010479800c0c2b3005d
:101a0c0020479800d0c2b3003047980020c0b300e4
:101a1c0040479800c0c2b30050479800d0c2b300f2
:101a2c0060479800e700470082772800050009000e
:101a3c00b258780010c5b300504f9800d0c4b30012
:101a4c00604f980083e92000120020008e0078007f
:101a5c00a00320000300010083e920000e00e80031
:101a6c003200200080007800100b200003000100e1
:101a7c0083e92000640047003200200080007800d9
:101a8c00200b20000300010083e9200067004700c1
:101a9c006200200080007800300b20000300010061
:101aac0083e920006d0047002200200080007800b0
:101abc00500c20000300010083e920000001eb0022
:101acc008e007800100220000300010083e9200042
:101adc000001eb008e0078001001200003000100d3
:101aec0083e920000001eb008e007800300120001b
:101afc000300010083e920000001eb008e00780058
:101b0c00900220000300010083e920000001eb009b
:101b1c008e007800c0022000030001000080fa0053
:101b2c00000006000200fa00000f780002003700e7
:101b3c007f3e0900000000001e00780000f0a700a6
:101b4c000000ea000000ea004f00de0000407800d0
:101b5c001e0fe9000004e000f5ff3a000080fa00d7
:101b6c00000006000000fa00c482a80005e1a800ed
:101b7c000080fa00000006000600fa00200798001a
:101b8c0020002000100798000000eb00000f7800e8
:101b9c000d0037001e007800ae0090000080400061
:101bac00104078000000fb002011880000000000ad
:101bbc001111800000202000008060000000e00077
:101bcc00fbff3a001e0fe8001e0090009e007800fc
:101bdc00808f5000efff35000080fa0000000600f7
:101bec000600fa00200798000000eb001007980090
:101bfc000000eb00000f78000f0037001e0078008b
:101c0c004200dd00ae009000008040001000be00dd
:101c1c00f3fa070000007800201188000000000093
:101c2c001111800000202000008060000000e00006
:101c3c00fbff3a001e0fe8001e0078000000e000d9
:101c4c00eeff34000080fa00000006000200fa00eb
:101c5c004140800050408000808f500002003a00cc
:101c6c00e0c4b30011003700704080000000e000b9
:101c7c0002003a00e0c4b3000c0037005040800072
:101c8c00c1812000614f7800504080008000e80046
:101c9c004001200000017800110009008200d800ea
:101cac008000fd00504088001e4078000080fa0043
:101cbc00000006000200fa00004f7800cca2a90038
:101ccc001e80fb0040128800000000000012800003
:101cdc00610060000000e000fcff3200cca2a80014
:101cec0040128000004078000080fa0000000600de
:101cfc000200fa00004f78001e80fb0040128800a2
:101d0c000000000000128000610060000000e00094
:101d1c00fcff320040128000004078000080fa0086
:101d2c00000006000800fa002047980021079800e0
:101d3c0032079800c422a9002e409000ddff070056
:101d4c00c422a8003e0090000000e0000d0032000c
:101d5c000000eb00000f7800060037001e00780032
:101d6c00ae0090000080400010407800d1ff0700ca
:101d7c001e0fe8009e0078003e009000808f5000ff
:101d8c00f6ff39000080fa00000006000200fa009d
:101d9c00000f78001e0078004880de0000407800bc
:101dac00d3ff07001e00780000407800d0ff07002a
:101dbc000080fa00000006000600fa0010079800e8
:101dcc00210798000001eb008000eb00c0c2b300bb
:101ddc00d4ff0700cca2a9000000eb00000f780094
:101dec000300370000802f00e8ff07001e0fe800fb
:101dfc00f0ff24009e007800808f5000f9ff340023
:101e0c00cca2a8000080fa00000006000000fa0036
:101e1c0009fd070088fd0700c3fd07007efd0700d4
:101e2c000040eb0069fe0700e6c1b300a5c0b3009b
:101e3c00c4c0b30073c0b30032c0b30081c0b300e0
:101e4c00807e200067fc0700e6fe0700ffff3700de
:020000040000fa
:101e5c001c08000014000000000000000008000036
:0c1e6c001c00000000000000000000004e
:020000040000fa
:020000040001f9
:0457f8000ff90000a5
:020000040000fa
:020000040001f9
:0457fc007f3f0000eb
:00000001FF
